:040000004BEF00F0D2
:100008005F82FACFA6F0FBCFA7F0E9CFA8F0EACF3E
:10001800A9F0E1CFAAF0E2CFABF0D9CFACF0DACFBC
:10002800ADF0F3CFAEF0F4CFAFF0F6CFB0F0F7CF3E
:10003800B1F0F8CFB2F0F5CFB3F0F2BC9DAC03D07D
:100048009EBC6AEC11F0F2BC9DA603D09EB674EC7F
:100058000DF0B3C0F5FFB2C0F8FFB1C0F7FFB0C0F4
:10006800F6FFAFC0F4FFAEC0F3FFADC0DAFFACC01F
:10007800D9FFABC0E2FFAAC0E1FFA9C0EAFFA8C050
:10008800E9FFA7C0FBFFA6C0FAFF5F921100C3EF0C
:0200980010F066
:100F000000010000000A00000064000000E8030087
:100F10000010270000A086010040420F0080969834
:100F20000000E1F50500CA9A3B52656164696E678D
:100F300020616C6C204144430D0A00496E697420A5
:100F4000636F6D706C657465640D0A0041444320E5
:100F50002564203A20256C640D0A00504D20526F04
:100F6000626F7469780D0A00636F6C6C6964650D5B
:030F70000A000074
:100F7400000E0001E26F000EE16F0001E2BF08D035
:100F84000001E25118E10A0E0001E15DD8B013D06E
:100F9400D8900001E135D96E0001E235DA6E800E99
:100FA400D926000EDA22000EDE6E000EDD6E000180
:100FB400E14BE22BE2D7F6EC10F08C86F28E8C84B7
:100FC400F28C5B0E0001CA6F0F0E0001CB6FE2ECD6
:100FD40008F03B0E0001CA6F0F0E0001CB6FE2EC6C
:100FE40008F0000E0001E66F0A0EE56F8C828C801B
:100FF400000E0001DE6F000EDD6F0001DEBF08D0C1
:101004000001DE515FE1020E0001DD5DD8B05AD06F
:101014008C86E5C0BCF0E6C0BDF063EC0EF08C96A7
:101024008C84E5C0BCF0E6C0BDF063EC0EF08C949B
:101034008C82E5C0BCF0E6C0BDF063EC0EF08C928F
:101044008C80E5C0BCF0E6C0BDF063EC0EF08C9083
:101054008B84E5C0BCF0E6C0BDF063EC0EF08B946D
:101064008B82E5C0BCF0E6C0BDF063EC0EF08B9261
:101074008B80E5C0BCF0E6C0BDF063EC0EF08B9055
:101084008A80E5C0BCF0E6C0BDF063EC0EF08A9047
:101094008A84E5C0BCF0E6C0BDF063EC0EF08A942F
:1010A4008A86E5C0BCF0E6C0BDF063EC0EF08A961B
:1010B400E5C0BCF0E6C0BDF063EC0EF00001DD4B12
:1010C400DE2B9BD78C988A866BD00001E0BF07D0BB
:1010D4000001E05165E10001DF05D8B061D0290EBF
:1010E4000001CA6F0F0E0001CB6FE2EC08F0000E96
:1010F4000001E46F000EE36F0001E4BF08D00001BB
:10110400E45143E10A0E0001E35DD8B03ED0000192
:10111400E3514BEC10F0040E0001DC6F0001D89099
:10112400B533B4330001DC2FF9D7D8900001E3358F
:10113400D96E0001E435DA6E800ED926000EDA226B
:101144000001B4C0DEFF0001B5C0DDFF4C0E00019C
:10115400CA6F0F0E0001CB6FE3C0CCF0E4C0CDF03A
:10116400D8900001E335D96E0001E435DA6E800EC3
:10117400D926000EDA22DECFCEF0DDCFCFF0E2ECBE
:1011840008F00001E34BE42BB7D7000E0001BD6F5C
:10119400320EBC6F63EC0EF00001DF4BE02B95D7F1
:1011A400010E0001BD6FF40EBC6F63EC0EF08A9665
:1011B400010E0001BD6FF40EBC6F63EC0EF083D71B
:1011C400CC0E0001D46F000E0001D56FEBD0250EBC
:1011D4000001DB19D8B405D00001DB5147EC11F054
:1011E400E1D0000E0001D66F02D00001D689CAC03A
:1011F400F6FFCBC0F7FF0001CA4BCB2BF86A0800FF
:10120400F5CFDBF00001DB51000AD8B41200640A08
:10121400D8B407D00D0AD8B404D0050AD8B4E5D799
:10122400C1D00001D6A90ED0D4C0D9FFD5C0DAFFF1
:10123400DECFD7F0DECFD8F0DECFD9F0DECFDAF0D4
:10124400040E0FD0D4C0D9FFD5C0DAFFDECFD7F05B
:10125400DDCFD8F00001000ED8BFFF0ED96FDA6FD2
:10126400020E0001D427000ED5230001DAAF0CD002
:10127400030E0001D6130001DA1FD91FD81FD76D42
:10128400000ED823D923DA23010E0001DB6F0A0EE6
:101294000001DB19D8B421D00001DB51040D010E8B
:1012A400F324F66E0F0EF420F76EF86A000EF8229F
:1012B4000900F5500001D75D0900F5500001D85927
:1012C4000900F5500001D9590900F5500001DA5917
:1012D400D8A003D00001DB2BDAD7D6C0D0F0030EA0
:1012E4000001D017D8B403D02D0E47EC11F0000143
:1012F400DB510001D26FD36BD2BFD30748D0D2C029
:10130400D0F0D3C0D1F00001D890D037D13700014C
:10131400D890D037D137010E0001D025F66E0F0ECC
:10132400D121F76EF86A000EF8220900F5CFB8F063
:101334000900F5CFB9F00900F5CFBAF00A00F5CFEE
:10134400BBF0D7C0B4F0D8C0B5F0D9C0B6F0DAC09D
:10135400B7F016EC0DF0B4C0C1F0B5C0C2F0B6C021
:10136400C3F0B7C0C4F00A0E0001C56F000EC66F0B
:10137400000EC76F000EC86FCAEC0DF00001C1511A
:10138400300F0001DB6F0001DB5147EC11F000016D
:10139400D207D8A0D3070001D229B1E10001D32993
:1013A400D8A4ADD7CAC0F6FFCBC0F7FF0001CA4B23
:1013B400CB2BF86A0800F5CFDBF00001DB51D8B481
:1013C400120005D7190E1D6E000E1E6ECAD0250E12
:1013D4002418D8B404D0245061EC11F0C2D0000E0B
:1013E4001F6E01D01F8817C0F6FF18C0F7FF174AF9
:1013F400182AF86A0800F5CF24F02450000AD8B45B
:101404001200640AD8B407D00D0AD8B404D0050A6F
:10141400D8B4E8D7A6D01FA80ED01DC0D9FF1EC0CF
:10142400DAFFDECF20F0DECF21F0DECF22F0DECFF8
:1014340023F0040E0ED01DC0D9FF1EC0DAFFDECF8C
:1014440020F0DDCF21F0000E21BEFF0E226E236EB0
:10145400020E1D26000E1E2223AE0AD0030E1F12FA
:10146400231E221E211E206C000E21222222232252
:10147400010E246E0A0E2418D8B41BD02450040D77
:10148400010EF324F66E0F0EF420F76EF86A000EC8
:10149400F8220900F550205C0900F5502158090094
:1014A400F55022580900F5502358D8A002D0242A18
:1014B400E1D71FC019F0030E1916D8B403D02D0EAE
:1014C40061EC11F024501B6E1C6A1BBE1C0641D03B
:1014D4001BC019F01CC01AF0D89019361A36D890CF
:1014E40019361A36010E1924F66E0F0E1A20F76EED
:1014F400F86A000EF8220900F5CF05F00900F5CFCF
:1015040006F00900F5CF07F00A00F5CF08F020C077
:1015140001F021C002F022C003F023C004F0F0EC7B
:101524000EF001C00EF002C00FF003C010F004C0B2
:1015340011F00A0E126E000E136E000E146E000EE1
:10154400156EE7EC0FF00E50300F246E245061EC52
:1015540011F01B06D8A01C061B28BAE11C28D8A42D
:10156400B7D717C0F6FF18C0F7FF174A182AF86A4A
:101574000800F5CF24F02450D8B4120028D7140E54
:101584000001E719D8A416D05EC018F0196A1AEC45
:1015940010F018C051F019C052F0000E0001976FFE
:1015A400020E966F51C060F0000E0001616F6BEC8B
:1015B40010F078D0150E0001E719D8A41CD05EC035
:1015C40018F0196AA4C01AF01B6A17EC0EF018C0C0
:1015D4005AF019C05BF0000E0001976F020E966F6F
:1015E4005AC055F05B50566E55C060F056C061F05D
:1015F4006BEC10F057D0160E0001E719D8A41CD0DC
:101604005EC018F0196AA4C01AF01B6AA3C01CF0CB
:101614001D6AAAEC0EF018C053F019C054F0000E65
:101624000001976F020E966F53C060F0000E000128
:10163400616F6BEC10F036D00C0E0001E719D8A4E2
:1016440031D05E50DEEC10F0040E506ED8900232B1
:101654000132502EFBD75E50020D800EF324D96E5A
:10166400000EF420DA6E01C0DEFF02C0DDFF5E5022
:10167400020D800EF324D96E000EF420DA6EDECF54
:101684005CF0DDCF5DF0000E0001976F020E966FE7
:101694005CC057F05D50586E57C060F058C061F0A0
:1016A4006BEC10F00001965100019711D8A404D0FE
:1016B4006BEC10F0000E1200600E00019425D96E40
:1016C400000E00019521DA6EDF50596E0001944B33
:1016D400952B000194510001965D00019751800AF9
:1016E400506E00019551800A5058D8B004D06BEC6C
:1016F40010F06F0E120059501200000E176E000EFB
:101704000E6E020E0D6E0AD00D500224D96E0E50CC
:101714000320DA6EDF5017260D4A0E2A04500D5CA2
:101724000E50800A0A6E0550800A0A58D8A0ECD7D9
:10173400171E8C88000E106E000E0F6E0BD00F500B
:101744000224D96E10500320DA6EDF505BEC11F0E6
:101754000F4A102A04500F5C1050800A0A6E05507C
:10176400800A0A58D8A0EBD717505BEC11F0E40EAE
:1017740000D000D0E82EFCD700D000D08C98060E04
:1017840008240B6E000E09200C6E000E126E000E63
:10179400116E0AD011500624D96E12500720DA6E49
:1017A4007A0EDF6E114A122A0B50115C1250800A15
:1017B4000A6E0C50800A0A58D8A0ECD73FEC11F0FE
:1017C40002D03FEC11F00A6E0A50136E146A13280B
:1017D4001410D8A4F6D706C0D9FF07C0DAFF13C087
:1017E400DFFF000E166E010E156E0BD01550062489
:1017F400D96E16500720DA6E3FEC11F0DF6E154AF1
:10180400162A0B50155C1650800A0A6E0C50800A7A
:101814000A58D8A0EBD7050E0A6E260EE82EFED77E
:101824000A2EFCD700D020EE04F00650D92607502B
:10183400DA22DF501200076E00019851000199115D
:10184400D8A423D007C0E7F00001984B992B000ED1
:10185400066E000E056E06BE08D0065005E1200E89
:10186400055CD8B0120001D01200600E0524D96EB8
:10187400000E0620DA6E420EDF6E054A062A06BE08
:10188400F4D7065001E1EBD71200000198050001DE
:101894009911D8A425D007C05EF00001984B992B6C
:1018A4000A0E0001E719D8A40BD05EC001F0026A49
:1018B40031EC0FF0000E0001996F000E986F1200CA
:1018C4000B0E0001E719D8A412005EC001F0026AF1
:1018D4006EEC0FF0000E0001996F000E986F12006D
:1018E400020E0001981900019911D8A406D007C06E
:1018F400A4F00001984B992B1200030E00019819D3
:1019040000019911D8A406D007C0A3F00001984B98
:10191400992B1200040E0001981900019911D8A402
:1019240006D007C0A2F00001984B992B1200050EB7
:101934000001981900019911D8A406D007C0A1F09C
:101944000001984B992B1200060E00019819000112
:101954009911D8A406D007C0A0F00001984B992B88
:1019640012000001984B992B1200000E0001B96F70
:101974000001B7AF08D00001B66DB71FD8B0B72BC0
:10198400010E0001B96F0001B5AF08D00001B46DBC
:10199400B51FD8B0B52B010E0001B91B000E000114
:1019A400BB6F000EBA6F0001B6510001B711D8B475
:1019B4002CD0010E0001B86F06D00001D890B637C4
:1019C400B7370001B82B0001B7AFF7D70001D890A3
:1019D400BA37BB370001B6510001B45D0001B751FD
:1019E4000001B559D8A00AD00001B6510001B45F76
:1019F4000001B7510001B55B0001BA810001D89024
:101A0400B733B6330001B82FE1D70001B951000153
:101A1400D8B405D00001BA6DBB1FD8B0BB2BBAC077
:101A2400B4F0BBC0B5F01200000E0001BC6F000E94
:101A3400BD6F000EBE6F000EBF6F0001B8510001F4
:101A4400B9110001BA110001BB11D8B442D0010E82
:101A54000001C06F08D00001D890B837B937BA3741
:101A6400BB370001C02B0001BBAFF5D70001D890F4
:101A7400BC37BD37BE37BF370001B8510001B45D74
:101A84000001B9510001B5590001BA510001B6591C
:101A94000001BB510001B759D8A012D00001B851C0
:101AA4000001B45F0001B9510001B55B0001BA51F6
:101AB4000001B65B0001BB510001B75B0001BC81B2
:101AC4000001D890BB33BA33B933B8330001C02F07
:101AD400CDD7BCC0B4F0BDC0B5F0BEC0B6F0BFC079
:101AE400B7F01200C7A0C7B002D09E9612009EA6FF
:101AF40041D0C7A416D0C7BA09D000019E51C1EC89
:101B04000AF0C96E00019E4B9F2BC688C7AA09D054
:101B140000019E51C1EC0AF0C96E00019E4B9F2B3F
:101B2400C688C7B427D0C7BA06D0010E0001E86F33
:101B3400C9CFA5F0C688C7AA1DD00001E851D8B402
:101B44000CD0C9CF9EF000019F6B00019E511DEC8B
:101B54000CF0000E0001E86F03D0C9501DEC0CF02E
:101B6400C6AE07D0C69EC9CFA5F00001A5511DEC95
:101B74000CF0C688A1A60AD0680E176E0F0E186E58
:101B8400E4EC09F0C9CFA5F0A196C6889E96120090
:101B94000001C5510001C6110001C7110001C8119F
:101BA400D8B43AD0010E0001C96F08D00001D89012
:101BB400C537C637C737C8370001C92B0001C8AFBE
:101BC400F5D70001C5510001C15D0001C6510001F6
:101BD400C2590001C7510001C3590001C851000195
:101BE400C459D8A010D00001C5510001C15F000143
:101BF400C6510001C25B0001C7510001C35B000173
:101C0400C8510001C45B0001D890C833C733C63340
:101C1400C5330001C92FD5D7C1C0C1F0C2C0C2F0BD
:101C2400C3C0C3F0C4C0C4F012001AC001F01BC08A
:101C340002F0ABEC0FF001C04EF002C04FF034687C
:101C4400356818C036F0000E496E020E486E020E5A
:101C540048244A6E000E49204B6E4AC037F0000EED
:101C64004D6E020E4C6E4CC038F01AC039F04EC0A6
:101C74003AF0340E026E000E036E000E056E070E6F
:101C8400046E1E0E066E000E076E000E096E010E27
:101C9400086E7FEC0BF01C6E1C50326E336A4E04DF
:101CA4004F10D8A404D023C018F0196A120024508D
:101CB4001D6E1C6A23501C24186E000E1D20196E04
:101CC40012000001BDBF08D00001BD510FE10A0E92
:101CD4000001BC5DD8B00AD0D00E0001BE6FC90EA1
:101CE400E82EFED7BE2FFCD700D01200BCC0B4F043
:101CF400BDC0B5F0000E0001B76F0A0EB66FB7ECA9
:101D04000CF0B4C0BFF0B5C0C0F0000E0001C26F4B
:101D1400000EC16F0CD0D00E0001BE6FC90EE82EAC
:101D2400FED7BE2FFCD700D00001C14BC22B00014F
:101D3400BF510001C15D0001C251800A0001BE6FA4
:101D44000001C051800A0001BE59D8B01200E3D787
:101D54001AC001F01BC002F0ABEC0FF001C04DF053
:101D640002C04EF03368346818C035F0030E4D24B9
:101D7400476E000E4E20486E47C036F0000E4A6E85
:101D8400030E496E49C037F01AC038F04D044E10A6
:101D9400D8A403D01CC039F004D01CC039F01D50A5
:101DA4003A6E330E026E000E036E060E4D24046E60
:101DB400000E4E20056E1F0E066E000E076E000EFE
:101DC400096E000E086E7FEC0BF01E6E1E504B6EFB
:101DD4004C6A4BC018F04CC019F01200000E096E8A
:101DE400000E0A6E000E0B6E000E0C6E05500610EF
:101DF40007100810D8B42AD0010E0D6E06D0D89062
:101E040005360636073608360D2A08AEF8D7D890B8
:101E140009360A360B360C360550015C065002585A
:101E24000750035808500458D8A009D00550015E43
:101E34000650025A0750035A0850045A0980D89091
:101E440008320732063205320D2EE1D709C001F0FF
:101E54000AC002F00BC003F00CC004F0120014D04E
:101E64008C8612008C8412008C8212008C801200EA
:101E74008B8412008B8212008B8012008A801200E5
:101E84008A8412008A86120001C003F002C004F0A2
:101E94000450000AD8A412000350010AD8B4E0D7B1
:101EA400030AD8B4DFD7010AD8B4DED7070AD8B4F6
:101EB400DDD7010AD8B4DCD7030AD8B4DBD7010ACA
:101EC400D8B4DAD70F0AD8B4D9D7010AD8B4D8D736
:101ED400030AD8A41200D6D714D08C9612008C947E
:101EE40012008C9212008C9012008B9412008B9230
:101EF40012008B9012008A9012008A9412008A9623
:101F0400120001C003F002C004F00450000AD8A477
:101F140012000350010AD8B4E0D7030AD8B4DFD7BB
:101F2400010AD8B4DED7070AD8B4DDD7010AD8B479
:101F3400DCD7030AD8B4DBD7010AD8B4DAD70F0A3E
:101F4400D8B4D9D7010AD8B4D8D7030AD8A4120070
:101F5400D6D70AD0000E026E020E016E1200000ED9
:101F6400026E010E016E120001C003F002C004F003
:101F74000450000AD8A4F3D70350000AD8B4EAD70F
:101F8400060AD8B4E7D70E0AD8B4E4D7060AD8B4F8
:101F9400E1D71A0AD8B4DED7020AD8B4DBD7080AC4
:101FA400D8B4D8D73E0AD8B4D5D7020AD8B4D2D731
:101FB400060AD8B4CFD7020AD8B4CCD70E0AD8B4FC
:101FC400C9D7180AD8B4C6D7CAD7125013101410D8
:101FD4001510D8B424D0010E166E06D0D89012363F
:101FE400133614361536162A15AEF8D712500E5C71
:101FF40013500F581450105815501158D8A008D029
:1020040012500E5E13500F5A1450105A1550115A94
:10201400D8901532143213321232162EE7D70EC06E
:102024000EF00FC00FF010C010F011C011F012002C
:102034002F68306818C031F0000E446E000E436EF5
:10204400020E4324456E000E4420466E45C032F015
:10205400000E486E010E476E47C033F02F0E026E1D
:10206400000E036E000E056E050E046E1B0E066E4A
:10207400000E076E000E096E000E086E7FEC0BF06A
:102084001A6E1A50496E4A6A49C018F04AC019F0CB
:1020940012000001B86FB8C0B6F00001B647B647E9
:1020A400C2500001B619830BB619C26EC280C28237
:1020B400C2B2FED7C4500001B76FB66BC350000163
:1020C400B6250001B46F000E0001B7210001B56F01
:1020D4001200000E0001956F000E946F0001E76975
:1020E400000E5E6E000E0001A46F000E0001A36FCF
:1020F400000E0001A26F000E0001A16F000E00018E
:10210400A06F000E0001996F000E986F1200300E40
:10211400CD6E000EAA6EF80ECF6E300ECE6ECE507F
:10212400CFCFB4F00001B56BB4C0B5F00001B46B0F
:102134000001B41100019C6F0001B55100019D6FB5
:102144009E9066EC11F01200000E8D6E000E8C6EE7
:10215400000E896E000E8A6E000E8B6E070E966E50
:10216400EF0E926EF20E936EB80E946EA00E956EF4
:102174000F015D697B0E0F015C6FFE0E0F015B6F3B
:102184001200D80EF66E220EF76E000EF86E0900DD
:10219400F5CFE7F00900F5CFE8F00900F5CFE9F055
:1021A40000EE60F0460EEE6AE806FDE15E6A5F90BE
:1021B4005F920001BAEF07F0056E05C003F0034615
:1021C4000346C2500318830B0318C26EC280C28236
:1021D400C2B2FED7C450046E036AC3500324016E16
:1021E400000E0420026E120068EC11F0A6EC10F050
:1021F40036EC11F007EC11F014EC11F089EC10F04E
:102204002BEC11F020EC11F01200000EC76E3E0E04
:10221400C66E010EC56EFE0EC86E100EC86E9E967A
:102224009D861200010EC26E800EC16E160EC06E27
:10223400000EC46E000EC36E9D8C1200180EB96E93
:10224400900EA66EA60EBA6E8A0E7B6E000E7C6E83
:102254001200080EA76E900EAB6EA40EAC6E0F0E9D
:10226400AF6E000E7D6E1200600ED36E000ED26E45
:10227400000E9B6E000E9A6E12009EAAFED7ABA2B1
:1022840002D0AB9EAB8EAE5012000001B56F0001C0
:10229400B5514EEC11F012000001B46FA4A8FED7A2
:1022A400B4C079FF1200016EA4A8FED701C079FF63
:1022B4001200016E9EA8FED701C0ADFF1200026E8F
:1022C400025055EC11F01200CD801200D09E120085
:0722D4009E9C1200FF015562
:020000040020DA
:08000000FFFFFFFFFFFFFFFF00
:020000040030CA
:0E00000015127F7CFF8991FF0FC00FE00F40AB
:00000001FF
