:0400000045EF00F0D8
:100008004082FACF10F0FBCF11F0E9CF12F0EACF1F
:1000180013F0E1CF14F0E2CF15F0D9CF16F0DACF14
:1000280017F0F3CF18F0F4CF19F0F6CF1AF0F7CF96
:100038001BF0F8CF1CF0F5CF1DF0F2BC9DA603D045
:100048009EB6A2EC02F01DC0F5FF1CC0F8FF1BC055
:10005800F7FF1AC0F6FF19C0F4FF18C0F3FF17C066
:10006800DAFF16C0D9FF15C0E2FF14C0E1FF13C0C4
:10007800EAFF12C0E9FF11C0FBFF10C0FAFF40926F
:10008800110076EF02F03FEC03F0F28EF28C9490C0
:100098009492000E306E0A0E2F6E000E2E6E000E19
:1000A8002D6E2EBE06D02E505DE1020E2D5CD8B00E
:1000B80059D08C862FC026F030C027F03FEC02F0D4
:1000C8008C968C842FC026F030C027F03FEC02F0CD
:1000D8008C948C822FC026F030C027F03FEC02F0C1
:1000E8008C928C802FC026F030C027F03FEC02F0B5
:1000F8008C908B842FC026F030C027F03FEC02F0A4
:100108008B948B822FC026F030C027F03FEC02F092
:100118008B928B802FC026F030C027F03FEC02F086
:100128008B908A802FC026F030C027F03FEC02F079
:100138008A908A842FC026F030C027F03FEC02F066
:100148008A948A862FC026F030C027F03FEC02F050
:100158008A962FC026F030C027F03FEC02F02D4AD7
:100168002E2A9FD78C86030E276EE80E266E3FEC4C
:1001780002F08C96030E276EE80E266E3FEC02F016
:100188008C828C808B84030E276EE80E266E3FECE3
:1001980002F08C968C948C928C908B948A90E2D7F7
:1001A8000C6E35503610D8A405D00CC039F0354A3D
:1001B800362A120035043610D8A449D00CC03AF0BB
:1001C800000E366E000E356E0A0E3918D8A406D009
:1001D8003AC001F0026AC5EC01F012000B0E3918A2
:1001E800D8A406D03AC001F0026A02EC02F012006C
:1001F8000C0E3918D8A41AD03AC006F0076A91EC48
:1002080003F006C00AF007C00BF0000E326E000EB5
:10021800316E000E346E020E336E0AC008F00B50B9
:10022800096E08C0E0F009C0E1F01200140E391898
:10023800D8B41200150E3918D8B41200160E391891
:10024800D8A41200000E366E020E356E1200020E91
:1002580035183610D8A403D00CC03BF01200030E9A
:1002680035183610D8A412000CC03CF0160E3918F8
:10027800D8A41200000E366E000E356E1200000E65
:10028800236E21AE06D0206C211ED8B0212A010E83
:10029800236E1FAE06D01E6C1F1ED8B01F2A010E7B
:1002A800231A000E256E000E246E20502110D8B49B
:1002B8001CD0010E226E04D0D89020362136222A76
:1002C80021AEFAD7D8902436253620501E5C21500E
:1002D8001F58D8A005D020501E5E21501F5A2480D8
:1002E800D89021322032222EEDD72350D8B404D012
:1002F800246C251ED8B0252A24C01EF025C01FF066
:100308001200000102030405060708090A0B0C0D78
:100318000E0F101112131415161718191A1B1C1D7D
:100328001E1F202122232425262728292A2B2C2D6D
:100338002E2F303132333435363738393A3B3C3D5D
:100348003E3F404142434445464748494A4B4C4D4D
:100358004E4F505152535455565758595A5B5C5D3D
:100368005E5F606162636465666768696A6B6C6D2D
:100378006E6F707172737475767778797A7B7C7D1D
:100388007E7F14D08C8612008C8412008C8212001E
:100398008C8012008B8412008B8212008B801200DA
:1003A8008A8012008A8412008A86120001C003F033
:1003B80002C004F00450000AD8A412000350010A35
:1003C800D8B4E0D7030AD8B4DFD7010AD8B4DED747
:1003D800070AD8B4DDD7010AD8B4DCD7030AD8B4E1
:1003E800DBD7010AD8B4DAD70F0AD8B4D9D7010AAB
:1003F800D8B4D8D7030AD8A41200D6D714D08C966C
:1004080012008C9412008C9212008C9012008B9423
:1004180012008B9212008B9012008A9012008A941C
:1004280012008A96120001C003F002C004F00450C2
:10043800000AD8A412000350010AD8B4E0D7030A6E
:10044800D8B4DFD7010AD8B4DED7070AD8B4DDD7C5
:10045800010AD8B4DCD7030AD8B4DBD7010AD8B468
:10046800DAD70F0AD8B4D9D7010AD8B4D8D7030A2B
:10047800D8A41200D6D727BE06D027500CE10A0E02
:10048800265CD8B008D0340E286EF20EE82EFED7BF
:10049800282EFCD7120026C01EF027C01FF0000E21
:1004A800216E0A0E206E43EC01F01EC029F01FC019
:1004B8002AF0000E2C6E000E2B6E09D0340E286E1A
:1004C800F20EE82EFED7282EFCD72B4A2C2A2950CC
:1004D8002B5C2C50800A286E2A50800A2858D8B0E5
:1004E8001200ECD70A0EF66E030EF76E000EF86EC9
:1004F80000EE60F010EE80F00900F5CFEEFFE55059
:10050800E150FAE13C0EF66E070EF76E000EF86E3B
:100518000900F5CF3FF000EEE0F0200EEE6AE806A5
:10052800FDE100EE31F00C0EEE6AE806FDE14090C8
:100538004092000EF86E000147EF00F0550E0F6E66
:100548009E96C9CF0FF0C7A40BD0C7BA82A804D013
:10055800030EDFEC02F00FD0010EDFEC02F00BD03F
:10056800C7BA04D0000EDFEC02F005D00FC03FF090
:10057800020EDFEC02F0C688120033503410D8A403
:1005880002D0000E1200E00E3124D96E000E322087
:10059800DA6EDF50026E314A322A3350315C325003
:1005A800800A016E3450800A0158D8A002D0000E8B
:1005B8001200025012000D6E0CD03FC00EF00E500B
:1005C800D4EC00F01200050E0E6EC1EC02F0C96EFC
:1005D80012000D50000AD8B41200010AD8B4F3D79B
:1005E800030AD8B4EAD7010A1200056E05C003F061
:1005F80003460346C2500318830B0318C26EC28019
:10060800C282C2B2FED7C450046E036AC350032428
:10061800016E000E0420026E1200000ECD6E000E58
:10062800AA6E000ECF6E000ECE6ECE50CFCF1EF04B
:100638001F6A1EC01FF01E6A1E103D6E1F503E6EC0
:100648009E909CEC03F01200000E8A6E000E896EDC
:10065800000E8D6E000E8C6E000E8B6E0F015B69A6
:10066800B00E956E070E966EF20E936EB80E946EDF
:10067800EF0E926E120099EC03F028EC03F080EC78
:1006880003F052EC03F089EC03F075EC03F011EC85
:1006980003F06AEC03F05FEC03F01200C00EC76EC3
:1006A800260EC66E000EC56EFE0EC86E100EC86E03
:1006B8009E969D861200080EB96E900EA66E260EA6
:1006C800BA6EA00E7B6E010E7C6E1200080EA76E2D
:1006D800900EAB6E240EAC6E030EAF6E000E7D6EE8
:1006E8001200010EC26E000EC16E020EC06E000E28
:1006F800C46E000EC36E1200600ED36E000ED26E72
:10070800000E9B6E000E9A6E1200000EBB6E000E5D
:10071800BC6E000EBD6E999012000650F9EC02F006
:1007280001C006F002C007F01200D09E9F9612008A
:05073800CD8012005508
:020000040020DA
:08000000FFFFFFFFFFFFFFFF00
:020000040030CA
:0E00000015027F7CFF8991FF0FC00FE00F40BB
:00000001FF
