:0400000045EF00F0D8
:100008005F82FACF62F0FBCF63F0E9CF64F0EACF0A
:1000180065F0E1CF66F0E2CF67F0D9CF68F0DACFCC
:1000280069F0F3CF6AF0F4CF6BF0F6CF6CF0F7CF4E
:100038006DF0F8CF6EF0F5CF6FF0F2BC9DA603D04F
:100048009EB668EC06F06FC0F5FF6EC0F8FF6DC095
:10005800F7FF6CC0F6FF6BC0F4FF6AC0F3FF69C01E
:10006800DAFF68C0D9FF67C0E2FF66C0E1FF65C07C
:10007800EAFF64C0E9FF63C0FBFF62C0FAFF5F925A
:1000880011003FEF06F0000E0001866F000E000120
:100098007D6F020E7C6F10D000017C51000171252C
:1000A800D96E00017D5100017221DA6EDF50000126
:1000B800862700017C4B7D2B0001735100017C5D7C
:1000C80000017D51800A0001796F00017451800A96
:1000D80000017959D8A0E0D70001861F8C88000E4E
:1000E80000017F6F000E7E6F10D000017E5100016D
:1000F8007125D96E00017F5100017221DA6EDF503F
:100108005EEC07F000017E4B7F2B0001735100016C
:100118007E5D00017F51800A0001796F00017451F2
:10012800800A00017959D8A0E0D7000186515EEC19
:1001380007F0850EE82EFED700F08C98060E000119
:10014800772500017A6F000E0001782100017B6F8E
:10015800000E0001816F000E806F0FD000018051EA
:1001680000017525D96E0001815100017621DA6EF2
:100178007A0EDF6E0001804B812B00017A5100015D
:10018800805D00018151800A0001796F00017B5177
:10019800800A00017959D8A0E1D733EC07F002D0E2
:1001A80033EC07F00001796F000179510001826F8B
:1001B800836B0001822900018311D8A4F1D775C08F
:1001C800D9FF76C0DAFF82C0DFFF000E0001856F1D
:1001D800010E846F10D00001845100017525D96E7D
:1001E8000001855100017621DA6E33EC07F0DF6EED
:1001F8000001844B852B00017A510001845D0001C8
:100208008551800A0001796F00017B51800A000145
:100218007959D8A0E0D7C80E00F0E82EFDD7000124
:1002280020EE04F07551D9267651DA22DF501200FB
:10023800F2EC06F0F28EF28C94909492000E00018B
:10024800BD6F0A0EBC6F000E0001BB6F000EBA6FC7
:100258000001BBBF08D00001BB515FE1020E0001E5
:10026800BA5DD8B05AD08C86BCC078F0BDC079F0E1
:1002780091EC04F08C968C84BCC078F0BDC079F009
:1002880091EC04F08C948C82BCC078F0BDC079F0FD
:1002980091EC04F08C928C80BCC078F0BDC079F0F1
:1002A80091EC04F08C908B84BCC078F0BDC079F0E0
:1002B80091EC04F08B948B82BCC078F0BDC079F0CF
:1002C80091EC04F08B928B80BCC078F0BDC079F0C3
:1002D80091EC04F08B908A80BCC078F0BDC079F0B6
:1002E80091EC04F08A908A84BCC078F0BDC079F0A3
:1002F80091EC04F08A948A86BCC078F0BDC079F08D
:1003080091EC04F08A96BCC078F0BDC079F091EC0D
:1003180004F00001BA4BBB2B9BD78C98010E00014F
:10032800796FF40E786F91EC04F08A86010E000163
:10033800796FF40E786F91EC04F08A96EFD78A867D
:10034800000E0001796F640E786F91EC04F0000ED6
:100358000001886F020E876FD6EC04F08A96000EB3
:100368000001796F640E786F91EC04F08A84000EB6
:100378000001796F640E786F91EC04F0000E0001B3
:10038800886F020E876FD6EC04F08A94000E000185
:10039800796F640E786F91EC04F08A80000E00018A
:1003A800796F640E786F91EC04F0000E0001886F8D
:1003B800020E876FD6EC04F08A90000E0001796F68
:1003C800640E786F91EC04F0BAD7140E0001EE19A0
:1003D800D8A417D0E8C018F0196A0EEC06F018C0B7
:1003E80051F019C052F0000E0001E36F020EE26FE7
:1003F80051C0BEF0000E0001BF6F62D00001EE696F
:1004080065D0150E0001EE19D8A41DD0E8C018F06B
:10041800196AE9C01AF01B6AFFEC03F018C05AF019
:1004280019C05BF0000E0001E36F040EE26F5AC0C2
:1004380055F05B50566E55C0BEF0000E0001BF6F00
:1004480056C0C0F03AD0160E0001EE19D8A417D045
:10045800E8C018F0196AE9C01AF01B6AEAC01CF073
:100468001D6A4BEC04F018C053F019C054F0000E8C
:100478000001E36F020EE26F53C0BEF0BBD70C0E53
:100488000001EE19D8A427D0E8C006F0076A56EC98
:1004980007F006C05CF007C05DF0000E0001E36FD6
:1004A800040EE26F5CC057F05D50586E57C0BEF046
:1004B800000E0001BF6F58C0C0F0000E0001C16FF0
:1004C800000E0001DF6F000EDE6F98D7000E0001EE
:1004D800E56F000EE46F0001E2510001E311D8A4BA
:1004E80007D0000E0001E56F000EE46F000E120049
:1004F800BE0E0001DE25D96E000E0001DF21DA6E86
:10050800DF50596E0001DE4BDF2B0001DE51000188
:10051800E25D0001E351800A506E0001DF51800A5C
:100528005058D8B007D0000E0001E56F000EE46FF8
:100538006F0E120059501200000E176E000E0E6E4C
:10054800020E0D6E0AD00D500224D96E0E500320F3
:10055800DA6EDF5017260D4A0E2A04500D5C0E5035
:10056800800A0A6E0550800A0A58D8A0ECD7171ED0
:100578008C88000E106E000E0F6E0BD00F500224E8
:10058800D96E10500320DA6EDF5065EC07F00F4A81
:10059800102A04500F5C1050800A0A6E0550800A19
:1005A8000A58D8A0EBD7175065EC07F0850EE82E4F
:1005B800FED700F08C98060E08240B6E000E09205A
:1005C8000C6E000E126E000E116E0AD01150062429
:1005D800D96E12500720DA6E7A0EDF6E114A122A8F
:1005E8000B50115C1250800A0A6E0C50800A0A588F
:1005F800D8A0ECD745EC07F002D045EC07F00A6E1E
:100608000A50136E146A13281410D8A4F6D706C01B
:10061800D9FF07C0DAFF13C0DFFF000E166E010E08
:10062800156E0BD015500624D96E16500720DA6EB9
:1006380045EC07F0DF6E154A162A0B50155C16506C
:10064800800A0A6E0C50800A0A58D8A0EBD7C80E48
:1006580000F0E82EFDD720EE04F00650D92607500A
:10066800DA22DF501200076E0001E4510001E511A3
:10067800D8A41CD007C0EEF00001E44BE52B000E17
:10068800066E000E056E06BE06D0065054E1200E1A
:10069800055CD8B01200BE0E0524D96E000E0620E7
:1006A800DA6E420EDF6E054A062AEDD70001E40530
:1006B8000001E511D8A425D007C0E8F00001E44BFB
:1006C800E52B0A0E0001EE19D8A40BD0E8C001F002
:1006D800026A58EC05F0000E0001E56F000EE46FA9
:1006E80012000B0E0001EE19D8A41200E8C001F0A8
:1006F800026A95EC05F0000E0001E56F000EE46F4C
:100708001200020E0001E4190001E511D8A406D078
:1007180007C0E9F00001E44BE52B1200030E0001CD
:10072800E4190001E511D8A4120007C0EAF000019D
:10073800E44BE52B12001200000E0001756F00015A
:1007480073AF08D00001726D731FD8B0732B010E00
:100758000001756F000171AF08D00001706D711F45
:10076800D8B0712B010E0001751B000E0001776FC8
:10077800000E766F0001725100017311D8B42CD0AD
:10078800010E0001746F06D00001D89072377337DC
:100798000001742B000173AFF7D70001D8907637AA
:1007A8007737000172510001705D0001735100013B
:1007B8007159D8A00AD0000172510001705F000180
:1007C80073510001715B000176810001D890733389
:1007D80072330001742FE1D7000175510001D8B4BC
:1007E80005D00001766D771FD8B0772B76C070F0F2
:1007F80077C071F012001AC001F01BC002F0D2ECF1
:1008080005F001C04EF002C04FF03468356818C0DA
:1008180036F0000E496E020E486E020E48244A6EEB
:10082800000E49204B6E4AC037F0000E4D6E020E86
:100838004C6E4CC038F01AC039F04EC03AF0340E45
:10084800026E000E036E000E056E070E046E1E0E7D
:10085800066E000E076E000E096E010E086EA0EC03
:1008680002F01C6E1C50326E336A4E044F10D8A42E
:1008780004D023C018F0196A120024501D6E1C6A97
:1008880023501C24186E000E1D20196E12001AC069
:1008980001F01BC002F0D2EC05F001C04DF002C01F
:1008A8004EF03368346818C035F0030E4D24476E97
:1008B800000E4E20486E47C036F0000E4A6E030EFA
:1008C800496E49C037F01AC038F04D044E10D8A40C
:1008D80003D01CC039F004D01CC039F01D503A6E4A
:1008E800330E026E000E036E060E4D24046E000ECB
:1008F8004E20056E1F0E066E000E076E000E096E66
:10090800000E086EA0EC02F01E6E1E504B6E4C6A74
:100918004BC018F04CC019F01200000179BF08D084
:10092800000179510EE10A0E0001785DD8B009D0B6
:10093800340E00017A6FF20EE82EFED77A2FFCD71C
:10094800120078C070F079C071F0000E0001736F6A
:100958000A0E726FA0EC03F070C07BF071C07CF0DF
:10096800000E00017E6F000E7D6F0BD0340E00016B
:100978007A6FF20EE82EFED77A2FFCD700017D4B56
:100988007E2B00017B5100017D5D00017E51800AB4
:1009980000017A6F00017C51800A00017A59D8B0B1
:1009A8001200E4D700019E6900019F6987C0A0F08A
:1009B800000E0001B36F000EB26F020E0001B225E7
:1009C8000001B46F000E0001B3210001B56FB4C07F
:1009D800A1F0000E0001B76F010EB66FB6C0A2F00D
:1009E8009E0E0001716F000E0001726F000E000173
:1009F800746F050E736F8A0E0001756F000E00018B
:100A0800766F000E0001786F000E776F47EC00F0EC
:100A18000001896F000189510001B86FB96BB8C036
:100A280087F0B9C088F01200000102030405060728
:100A380008090A0B0C0D0E0F1011121314151617B6
:100A480018191A1B1C1D1E1F2021222324252627A6
:100A580028292A2B2C2D2E2F303132333435363796
:100A680038393A3B3C3D3E3F404142434445464786
:100A780048494A4B4C4D4E4F505152535455565776
:100A880058595A5B5C5D5E5F606162636465666766
:100A980068696A6B6C6D6E6F707172737475767756
:100AA80078797A7B7C7D7E7F14D08C8612008C844A
:100AB80012008C8212008C8012008B8412008B82B0
:100AC80012008B8012008A8012008A8412008A86A3
:100AD800120001C003F002C004F00450000AD8A4B8
:100AE80012000350010AD8B4E0D7030AD8B4DFD7FC
:100AF800010AD8B4DED7070AD8B4DDD7010AD8B4BA
:100B0800DCD7030AD8B4DBD7010AD8B4DAD70F0A7E
:100B1800D8B4D9D7010AD8B4D8D7030AD8A41200B0
:100B2800D6D714D08C9612008C9412008C92120096
:100B38008C9012008B9412008B9212008B901200F2
:100B48008A9012008A9412008A96120001C003F05B
:100B580002C004F00450000AD8A412000350010A8D
:100B6800D8B4E0D7030AD8B4DFD7010AD8B4DED79F
:100B7800070AD8B4DDD7010AD8B4DCD7030AD8B439
:100B8800DBD7010AD8B4DAD70F0AD8B4D9D7010A03
:100B9800D8B4D8D7030AD8A41200D6D70AD0000EE2
:100BA800026E020E016E1200000E026E010E016E40
:100BB800120001C003F002C004F00450000AD8A4D7
:100BC800F3D70350000AD8B4EAD7060AD8B4E7D74F
:100BD8000E0AD8B4E4D7060AD8B4E1D71A0AD8B4AA
:100BE800DED7020AD8B4DBD7080AD8B4D8D73E0A69
:100BF800D8B4D5D7020AD8B4D2D7060AD8B4CFD732
:100C0800020AD8B4CCD70E0AD8B4C9D7180AD8B4AF
:100C1800C6D7CAD72F68306818C031F0000E446EA6
:100C2800000E436E020E4324456E000E4420466EAD
:100C380045C032F0000E486E010E476E47C033F0D3
:100C48002F0E026E000E036E000E056E050E046E6A
:100C58001B0E066E000E076E000E096E000E086E63
:100C6800A0EC02F01A6E1A50496E4A6A49C018F090
:100C78004AC019F01200300EF66E0A0EF76E000E1A
:100C8800F86E01EE00F010EE80F00900F5CFEEFFEF
:100C9800E550E150FAE1E00EF66E0E0EF76E000E2A
:100CA800F86E0900F5CFEDF00900F5CFEEF000EE93
:100CB800BEF02D0EEE6AE806FDE15F905F92000E31
:100CC800F86E00011CEF01F0550E5E6E9E96C9CFBE
:100CD8005EF0C7A40BD0C7BA82A804D0030E87EC75
:100CE80006F00FD0010E87EC06F00BD0C7BA04D07F
:100CF800000E87EC06F005D05EC0EDF0020E87EC22
:100D080006F0C68812000001606F0ED0EDC061F0D9
:100D18000001615137EC03F01200E9EC01F0000129
:100D2800616F61C0C9FF120000016051000AD8B4A8
:100D38001200010AD8B4F1D7030AD8B4E7D7010AD8
:100D48001200000ECD6E000EAA6E000ECF6E000EC1
:100D5800CE6ECE50CFCF70F00001716B70C071F0C5
:100D68000001706B000170110001EB6F00017151FF
:100D78000001EC6F9E906EEC07F01200000E8A6E78
:100D8800000E896E000E8D6E000E8C6E000E8B6E3E
:100D9800FE0E0F015B6FA00E956E070E966EF20E9B
:100DA800936EB80E946EEF0E926E1200056E05C02B
:100DB80003F003460346C2500318830B0318C26EA0
:100DC800C280C282C2B2FED7C450046E036AC35046
:100DD8000324016E000E0420026E12006BEC07F073
:100DE800C2EC06F03CEC07F005EC07F04EEC07F01F
:100DF80028EC07F0A5EC06F01DEC07F012EC07F064
:100E08001200C00EC76E260EC66E000EC56EFE0E10
:100E1800C86E100EC86E9E969D861200080EB96E9A
:100E2800900EA66E260EBA6EA00E7B6E010E7C6E1C
:100E38001200080EA76E900EAB6EA40EAC6E030ED9
:100E4800AF6E000E7D6E1200010EC26E000EC16EF6
:100E5800320EC06E000EC46E000EC36E1200AB8A56
:100E68009EAAFED7ABA202D0AB9EAB8EAE501200AC
:100E7800600ED36E000ED26E000E9B6E000E9A6E40
:100E88001200AB8A9EAAFED7ABA202D0AB9EAB8E55
:100E9800AE501200000EBB6E000EBC6E000EBD6E92
:100EA800999012000650DAEC06F001C006F002C074
:100EB80007F012000001706F9EA8FED770C0ADFF4A
:100EC8001200016E9EA8FED701C0ADFF1200D09E91
:0A0ED8009F961200CD80120055FF16
:020000040020DA
:08000000FFFFFFFFFFFFFFFF00
:020000040030CA
:0E00000015027F7CFF8991FF0FC00FE00F40BB
:00000001FF
