:040000004BEF00F0D2
:100008005F82FACFA8F0FBCFA9F0E9CFAAF0EACF38
:10001800ABF0E1CFACF0E2CFADF0D9CFAEF0DACFB4
:10002800AFF0F3CFB0F0F4CFB1F0F6CFB2F0F7CF36
:10003800B3F0F8CFB4F0F5CFB5F0F2BC9DAC03D077
:100048009EBCC7EC06F0F2BC9DA603D09EB638EC69
:1000580006F0B5C0F5FFB4C0F8FFB3C0F7FFB2C0F3
:10006800F6FFB1C0F4FFB0C0F3FFAFC0DAFFAEC017
:10007800D9FFADC0E2FFACC0E1FFABC0EAFFAAC048
:10008800E9FFA9C0FBFFA8C0FAFF5F921100B3EF18
:1000980005F0000E0001CA6F000EC96F0001CABF4B
:1000A80008D00001CA5118E10A0E0001C95DD8B094
:1000B80013D0D8900001C935D96E0001CA35DA6E5F
:1000C800800ED926000EDA22000EDE6E000EDD6EDE
:1000D8000001C94BCA2BE2D769EC06F08C86F28E78
:1000E8008C84F28C000E0001CE6F0A0ECD6F8C82CC
:1000F8008C80000E0001C66F000EC56F0001C6BFE0
:1001080008D00001C6515FE1020E0001C55DD8B0FC
:100118005AD08C86CDC0BEF0CEC0BFF017EC04F02C
:100128008C968C84CDC0BEF0CEC0BFF017EC04F026
:100138008C948C82CDC0BEF0CEC0BFF017EC04F01A
:100148008C928C80CDC0BEF0CEC0BFF017EC04F00E
:100158008C908B84CDC0BEF0CEC0BFF017EC04F0FD
:100168008B948B82CDC0BEF0CEC0BFF017EC04F0EC
:100178008B928B80CDC0BEF0CEC0BFF017EC04F0E0
:100188008B908A80CDC0BEF0CEC0BFF017EC04F0D3
:100198008A908A84CDC0BEF0CEC0BFF017EC04F0C0
:1001A8008A948A86CDC0BEF0CEC0BFF017EC04F0AA
:1001B8008A96CDC0BEF0CEC0BFF017EC04F00001A7
:1001C800C54BC62B9BD78C988A86000E0001C86F3A
:1001D800000EC76F0001C8BF08D00001C85139E13F
:1001E800320E0001C75DD8B034D0000E0001CC6FCC
:1001F800000ECB6F0001CCBF08D00001CC511EE12E
:100208000A0E0001CB5DD8B019D00001CB51DCEC4F
:1002180005F0D8900001CB35D96E0001CC35DA6EE7
:10022800800ED926000EDA220001B6C0DEFF0001DA
:10023800B7C0DDFF0001CB4BCC2BDCD7000E000193
:10024800BF6F0A0EBE6F17EC04F00001C74BC82B36
:10025800C1D78A96010E0001BF6FF40EBE6F17EC6E
:1002680004F0B2D7140E0001D019D8A416D0A0C03B
:1002780018F0196A52EC05F018C051F019C052F084
:10028800000E0001996F020E986F51C060F0000EC9
:100298000001616FFCEC05F072D0150E0001D01959
:1002A800D8A422D0A0C018F0196AA1C01AF01B6AFD
:1002B80085EC03F018C059F019C05AF0000E00017F
:1002C800996F040E986F59C055F05A50566E55C024
:1002D80060F0000E0001616F56C062F0000E000170
:1002E800636FFCEC05F04BD0160E0001D019D8A4B2
:1002F8001CD0A0C018F0196AA1C01AF01B6AA2C0CD
:100308001CF01D6AD1EC03F018C053F019C054F06A
:10031800000E0001996F020E986F53C060F0000E36
:100328000001616FFCEC05F02AD00C0E0001D01919
:10033800D8A425D00001A051020D800EF324D96E57
:10034800000EF420DA6EDECF5BF0DDCF5CF0000E3D
:100358000001996F060E986F5BC057F05C505D6E98
:1003680057C060F05DC061F05DC062F05DC063F0D1
:100378005DC064F0050E0001656FFCEC05F000013E
:10038800985100019911D8A404D0FCEC05F0000E96
:100398001200600E00019425D96E000E000195210F
:1003A800DA6EDF50586E0001944B952B0001945182
:1003B8000001985D00019951800A506E0001955125
:1003C800800A5058D8B004D0FCEC05F06F0E12002B
:1003D80058501200000E176E000E0E6E020E0D6EB3
:1003E8000AD00D500224D96E0E500320DA6EDF5069
:1003F80017260D4A0E2A04500D5C0E50800A0A6E0C
:100408000550800A0A58D8A0ECD7171E8C88000E11
:10041800106E000E0F6E0BD00F500224D96E1050C4
:100428000320DA6EDF50BBEC06F00F4A102A0450A6
:100438000F5C1050800A0A6E0550800A0A58D8A02E
:10044800EBD71750BBEC06F0E40E00D000D0E82E36
:10045800FCD700D000D08C98060E08240B6E000E36
:1004680009200C6E000E126E000E116E0AD011508B
:100478000624D96E12500720DA6E7A0EDF6E114A02
:10048800122A0B50115C1250800A0A6E0C50800A16
:100498000A58D8A0ECD7B2EC06F002D0B2EC06F0BD
:1004A8000A6E0A50136E146A13281410D8A4F6D7CB
:1004B80006C0D9FF07C0DAFF13C0DFFF000E166EB3
:1004C800010E156E0BD015500624D96E1650072054
:1004D800DA6EB2EC06F0DF6E154A162A0B50155C80
:1004E8001650800A0A6E0C50800A0A58D8A0EBD71A
:1004F800050E0A6E260EE82EFED70A2EFCD700D06F
:1005080020EE04F00650D9260750DA22DF501200F8
:10051800076E00019A5100019B11D8A423D007C08F
:10052800D0F000019A4B9B2B000E066E000E056E54
:1005380006BE08D0065005E1200E055CD8B01200B2
:1005480001D01200600E0524D96E000E0620DA6E66
:10055800420EDF6E054A062A06BEF4D7065001E1B0
:10056800EBD7120000019A0500019B11D8A425D0F1
:1005780007C0A0F000019A4B9B2B0A0E0001D0196E
:10058800D8A40BD0A0C001F0026A9CEC04F0000EC5
:1005980000019B6F000E9A6F12000B0E0001D0191C
:1005A800D8A41200A0C001F0026AD9EC04F0000E31
:1005B80000019B6F000E9A6F1200020E00019A193B
:1005C80000019B11D8A406D007C0A1F000019A4BE6
:1005D8009B2B1200030E00019A1900019B11D8A44D
:1005E80006D007C0A2F000019A4B9B2B1200040E04
:1005F80000019A1900019B11D8A406D007C0A3F0E6
:1006080000019A4B9B2B1200050E00019A1900015C
:100618009B11D8A406D007C0A4F000019A4B9B2BCD
:100628001200060E00019A1900019B11D8A406D0E9
:1006380007C0A5F000019A4B9B2B120000019A4BB2
:100648009B2B1200000E0001BB6F0001B9AF08D050
:100658000001B86DB91FD8B0B92B010E0001BB6FEE
:100668000001B7AF08D00001B66DB71FD8B0B72BDF
:10067800010E0001BB1B000E0001BD6F000EBC6F18
:100688000001B8510001B911D8B42CD0010E0001F5
:10069800BA6F06D00001D890B837B9370001BA2B25
:1006A8000001B9AFF7D70001D890BC37BD370001BA
:1006B800B8510001B65D0001B9510001B759D8A081
:1006C8000AD00001B8510001B65F0001B95100011C
:1006D800B75B0001BC810001D890B933B833000181
:1006E800BA2FE1D70001BB510001D8B405D00001F1
:1006F800BC6DBD1FD8B0BD2BBCC0B6F0BDC0B7F037
:1007080012001AC001F01BC002F016EC05F001C07F
:100718004EF002C04FF03468356818C036F0000E4D
:10072800496E020E486E020E48244A6E000E492099
:100738004B6E4AC037F0000E4D6E020E4C6E4CC028
:1007480038F01AC039F04EC03AF0340E026E000E7E
:10075800036E000E056E070E046E1E0E066E000E6A
:10076800076E000E096E010E086EEEEC01F01C6EAD
:100778001C50326E336A4E044F10D8A404D023C0E4
:1007880018F0196A120024501D6E1C6A23501C248C
:10079800186E000E1D20196E12001AC001F01BC041
:1007A80002F016EC05F001C04DF002C04EF03368BF
:1007B800346818C035F0030E4D24476E000E4E20E5
:1007C800486E47C036F0000E4A6E030E496E49C0A7
:1007D80037F01AC038F04D044E10D8A403D01CC00E
:1007E80039F004D01CC039F01D503A6E330E026E39
:1007F800000E036E060E4D24046E000E4E20056E8C
:100808001F0E066E000E076E000E096E000E086EB3
:10081800EEEC01F01E6E1E504B6E4C6A4BC018F089
:100828004CC019F012000001BFBF08D00001BF5131
:100838000EE10A0E0001BE5DD8B009D0D00E00014D
:10084800C06FCA0EE82EFED7C02FFCD71200BEC05C
:10085800B6F0BFC0B7F0000E0001B96F0A0EB86F4E
:1008680026EC03F0B6C0C1F0B7C0C2F0000E00011C
:10087800C46F000EC36F0BD0D00E0001C06FCA0E3C
:10088800E82EFED7C02FFCD70001C34BC42B0001B4
:10089800C1510001C35D0001C451800A0001C06F4D
:1008A8000001C251800A0001C059D8B01200E4D733
:1008B800000102030405060708090A0B0C0D0E0FB8
:1008C800101112131415161718191A1B1C1D1E1FA8
:1008D800202122232425262728292A2B2C2D2E2F98
:1008E800303132333435363738393A3B3C3D3E3F88
:1008F800404142434445464748494A4B4C4D4E4F78
:10090800505152535455565758595A5B5C5D5E5F67
:10091800606162636465666768696A6B6C6D6E6F57
:10092800707172737475767778797A7B7C7D7E7F47
:1009380014D08C8612008C8412008C8212008C8059
:1009480012008B8412008B8212008B8012008A8026
:1009580012008A8412008A86120001C003F002C0C5
:1009680004F00450000AD8A412000350010AD8B4B5
:10097800E0D7030AD8B4DFD7010AD8B4DED7070A0C
:10098800D8B4DDD7010AD8B4DCD7030AD8B4DBD78A
:10099800010AD8B4DAD70F0AD8B4D9D7010AD8B41B
:1009A800D8D7030AD8A41200D6D714D08C96120030
:1009B8008C9412008C9212008C9012008B9412006E
:1009C8008B9212008B9012008A9012008A94120067
:1009D8008A96120001C003F002C004F00450000A15
:1009E800D8A412000350010AD8B4E0D7030AD8B437
:1009F800DFD7010AD8B4DED7070AD8B4DDD7010A91
:100A0800D8B4DCD7030AD8B4DBD7010AD8B4DAD70C
:100A18000F0AD8B4D9D7010AD8B4D8D7030AD8A4AA
:100A28001200D6D70AD0000E026E020E016E120016
:100A3800000E026E010E016E120001C003F002C02A
:100A480004F00450000AD8A4F3D70350000AD8B41D
:100A5800EAD7060AD8B4E7D70E0AD8B4E4D7060A04
:100A6800D8B4E1D71A0AD8B4DED7020AD8B4DBD78B
:100A7800080AD8B4D8D73E0AD8B4D5D7020AD8B409
:100A8800D2D7060AD8B4CFD7020AD8B4CCD70E0A20
:100A9800D8B4C9D7180AD8B4C6D7CAD72F68306807
:100AA80018C031F0000E446E000E436E020E43244F
:100AB800456E000E4420466E45C032F0000E486E6A
:100AC800010E476E47C033F02F0E026E000E036E04
:100AD800000E056E050E046E1B0E066E000E076EE8
:100AE800000E096E000E086EEEEC01F01A6E1A5038
:100AF800496E4A6A49C018F04AC019F0120000014C
:100B0800A66F20D0000E0001976F020E966F12009C
:100B1800CFC0A7F0020E0001961900019711D8A4C2
:100B280012000001A7518CEC02F0000E0001976F33
:100B3800000E966F120036EC01F00001A76FA7C0F7
:100B4800C9FF12000001A651000AD8B4DBD7010A78
:100B5800D8B4F1D7030AD8B4DBD7010A1200B80E0B
:100B6800F66E080EF76E000EF86E01EE00F010EE4D
:100B780080F00900F5CFEEFFE550E150FAE1920E62
:100B8800F66E0D0EF76E000EF86E0900F5CFCFF079
:100B98000900F5CFD0F000EE60F0460EEE6AE806E8
:100BA800FDE15F905F92000EF86E00014DEF00F0DE
:100BB8000001BA6FBAC0B8F00001B847B847C250D0
:100BC8000001B819830BB819C26EC280C282C2B2C2
:100BD800FED7C4500001B96FB86BC3500001B825E7
:100BE8000001B66F000E0001B9210001B76F1200B5
:100BF800000E0001956F000E946F0001D069000E81
:100C08000001A06F000E0001A16F000E0001A26F8D
:100C1800000E0001A36F000E0001A46F000E00017A
:100C2800A56F000E00019B6F000E9A6F1200300E28
:100C3800CD6E000EAA6EF80ECF6E300ECE6ECE5070
:100C4800CFCFB6F00001B76BB6C0B7F00001B66BF6
:100C58000001B61100019C6F0001B75100019D6FA2
:100C68009E90C5EC06F01200C7A012009E96C9CF50
:100C78005EF0C7A40BD0C7BA82A804D0030E83ECD9
:100C880005F009D0010E83EC05F005D0C7AA03D002
:100C98005E508CEC02F0C6881200000E8A6E000EC0
:100CA800896E000E8D6E000E8C6E000E8B6EFE0E21
:100CB8000F015B6FA00E956E070E966EF20E936E87
:100CC800B80E946EEF0E926E1200C1EC06F051EC65
:100CD80006F0A9EC06F07AEC06F087EC06F01BECBF
:100CE80006F09EEC06F093EC06F01200000EC76EBC
:100CF8003E0EC66E010EC56EFE0EC86E100EC86E94
:100D08009E969D861200010EC26E800EC16E160E52
:100D1800C06E000EC46E000EC36E9D8C1200080ECD
:100D2800B96E900EA66E260EBA6E820E7B6E060EF9
:100D38007C6E1200080EA76E900EAB6EA40EAC6E01
:100D48000F0EAF6E000E7D6E1200600ED36E000E99
:100D5800D26E000E9B6E000E9A6E1200AB8A9EAA8F
:100D6800FED7ABA202D0AB9EAB8EAE501200016E86
:100D78009EA8FED701C0ADFF1200D09E9F9C9F96F3
:0C0D88001200CD8012009E9C120055FF4E
:020000040020DA
:08000000FFFFFFFFFFFFFFFF00
:020000040030CA
:0E00000015127F7CFF8991FF0FC00FE00F40AB
:00000001FF
