:040000004BEF00F0D2
:100008005F82FACFA7F0FBCFA8F0E9CFA9F0EACF3B
:10001800AAF0E1CFABF0E2CFACF0D9CFADF0DACFB8
:10002800AEF0F3CFAFF0F4CFB0F0F6CFB1F0F7CF3A
:10003800B2F0F8CFB3F0F5CFB4F0F2BC9DAC03D07A
:100048009EBCCFEC11F0F2BC9DA603D09EB6D9ECB5
:100058000DF0B4C0F5FFB3C0F8FFB2C0F7FFB1C0F0
:10006800F6FFB0C0F4FFAFC0F3FFAEC0DAFFADC01B
:10007800D9FFACC0E2FFABC0E1FFAAC0EAFFA9C04C
:10008800E9FFA8C0FBFFA7C0FAFF5F92110029EFA4
:0200980011F065
:100F000000010000000A00000064000000E8030087
:100F10000010270000A086010040420F0080969834
:100F20000000E1F50500CA9A3B6765744279746573
:100F3000546F53656E6420627974657353656E7483
:100F40003A256420646174615F72656365697665E2
:100F5000643A2564200D0A0068616E646C6542790C
:100F6000746552656365697665642072656164497C
:100F70006E6465783A2564202D3E2025640D0A00B4
:100F800052656164696E6720616C6C204144430D59
:100F90000A00496E697420636F6D706C65746564D6
:100FA0000D0A00414443202564203A20256C640D3D
:100FB0000A00504D20526F626F7469780D0A006309
:100FC0006F6C6C6964650D0A0000000E0001E36F30
:100FD000000EE26F0001E3BF08D00001E35118E109
:100FE0000A0E0001E25DD8B013D0D8900001E235BE
:100FF000D96E0001E335DA6E800ED926000EDA22B2
:10100000000EDE6E000EDD6E0001E24BE32BE2D738
:101010005BEC11F08C86F28E8C84F28CB20E0001A7
:10102000CB6F0F0E0001CC6F0DEC09F0920E00019A
:10103000CB6F0F0E0001CC6F0DEC09F0000E00011C
:10104000E76F0A0EE66F8C828C80000E0001DF6F66
:10105000000EDE6F0001DFBF08D00001DF515FE14D
:10106000020E0001DE5DD8B05AD08C86E6C0BDF01D
:10107000E7C0BEF0C8EC0EF08C968C84E6C0BDF0E4
:10108000E7C0BEF0C8EC0EF08C948C82E6C0BDF0D8
:10109000E7C0BEF0C8EC0EF08C928C80E6C0BDF0CC
:1010A000E7C0BEF0C8EC0EF08C908B84E6C0BDF0BB
:1010B000E7C0BEF0C8EC0EF08B948B82E6C0BDF0AA
:1010C000E7C0BEF0C8EC0EF08B928B80E6C0BDF09E
:1010D000E7C0BEF0C8EC0EF08B908A80E6C0BDF091
:1010E000E7C0BEF0C8EC0EF08A908A84E6C0BDF07E
:1010F000E7C0BEF0C8EC0EF08A948A86E6C0BDF068
:10110000E7C0BEF0C8EC0EF08A96E6C0BDF0E7C0BE
:10111000BEF0C8EC0EF00001DE4BDF2B9BD78C98A5
:101120008A866BD00001E1BF07D00001E15165E183
:101130000001E005D8B061D0800E0001CB6F0F0E2A
:101140000001CC6F0DEC09F0000E0001E56F000E00
:10115000E46F0001E5BF08D00001E55143E10A0E4C
:101160000001E45DD8B03ED00001E451B0EC10F0D5
:10117000040E0001DD6F0001D890B633B5330001D5
:10118000DD2FF9D7D8900001E435D96E0001E5359F
:10119000DA6E800ED926000EDA220001B5C0DEFF1D
:1011A0000001B6C0DDFFA30E0001CB6F0F0E0001E2
:1011B000CC6FE4C0CDF0E5C0CEF0D8900001E435AE
:1011C000D96E0001E535DA6E800ED926000EDA22DE
:1011D000DECFCFF0DDCFD0F00DEC09F00001E44B15
:1011E000E52BB7D7000E0001BE6F320EBD6FC8EC05
:1011F0000EF00001E04BE12B95D7010E0001BE6F10
:10120000F40EBD6FC8EC0EF08A96010E0001BE6FA1
:10121000F40EBD6FC8EC0EF083D7CD0E0001D56F74
:10122000000E0001D66FEBD0250E0001DC19D8B4FA
:1012300005D00001DC51ACEC11F0E1D0000E000152
:10124000D76F02D00001D789CBC0F6FFCCC0F7FF23
:101250000001CB4BCC2BF86A0800F5CFDCF0000185
:10126000DC51000AD8B41200640AD8B407D00D0AC1
:10127000D8B404D0050AD8B4E5D7C1D00001D7A9A5
:101280000ED0D5C0D9FFD6C0DAFFDECFD8F0DECF82
:10129000D9F0DECFDAF0DECFDBF0040E0FD0D5C010
:1012A000D9FFD6C0DAFFDECFD8F0DDCFD9F000010C
:1012B000000ED9BFFF0EDA6FDB6F020E0001D527DB
:1012C000000ED6230001DBAF0CD0030E0001D713B4
:1012D0000001DB1FDA1FD91FD86D000ED923DA23D6
:1012E000DB23010E0001DC6F0A0E0001DC19D8B40B
:1012F00021D00001DC51040D010EF324F66E0F0E17
:10130000F420F76EF86A000EF8220900F55000018B
:10131000D85D0900F5500001D9590900F5500001C8
:10132000DA590900F5500001DB59D8A003D00001BB
:10133000DC2BDAD7D7C0D1F0030E0001D117D8B417
:1013400003D02D0EACEC11F00001DC510001D36F85
:10135000D46BD3BFD40748D0D3C0D1F0D4C0D2F01F
:101360000001D890D137D2370001D890D137D23789
:10137000010E0001D125F66E0F0ED221F76EF86A2C
:10138000000EF8220900F5CFB9F00900F5CFBAF048
:101390000900F5CFBBF00A00F5CFBCF0D8C0B5F01E
:1013A000D9C0B6F0DAC0B7F0DBC0B8F07BEC0DF016
:1013B000B5C0C2F0B6C0C3F0B7C0C4F0B8C0C5F085
:1013C0000A0E0001C66F000EC76F000EC86F000E38
:1013D000C96F2FEC0EF00001C251300F0001DC6F1D
:1013E0000001DC51ACEC11F00001D307D8A0D40708
:1013F0000001D329B1E10001D429D8A4ADD7CBC0D5
:10140000F6FFCCC0F7FF0001CB4BCC2BF86A0800ED
:10141000F5CFDCF00001DC51D8B4120005D7556ED1
:10142000290E176E0F0E186E94C019F095C01AF0A1
:1014300055C01BF01C6AFAEC0AF0140E0001E81902
:10144000D8A416D0A5C018F0196A7FEC10F018C007
:1014500051F019C052F0000E0001976F020E966F06
:1014600051C060F0000E0001616FD0EC10F097D019
:10147000150E0001E819D8A422D0A5C018F0196AE9
:10148000A4C01AF01B6A7CEC0EF018C05BF019C007
:101490005CF0000E0001976F040E966F5BC056F073
:1014A0005C50576E56C060F0000E0001616F57C06F
:1014B00062F0000E0001636FD0EC10F070D0160ED9
:1014C0000001E819D8A41CD0A5C018F0196AA4C05E
:1014D0001AF01B6AA3C01CF01D6A0FEC0FF018C0B5
:1014E00053F019C054F0000E0001976F020E966F72
:1014F00053C060F0000E0001616FD0EC10F04FD0CF
:101500000C0E0001E819D8A44AD00001A55143EC03
:1015100011F0040E506ED89002320132502EFBD7DB
:101520000001A551020D800EF324D96E000EF420A7
:10153000DA6E01C0DEFF02C0DDFFA30E176E0F0ED4
:10154000186EA5C019F01A6A0001A551020D800E8F
:10155000F324D96E000EF420DA6EDECF1BF0DDCF5F
:101560001CF0FAEC0AF00001A551020D800EF324E4
:10157000D96E000EF420DA6EDECF5DF0DDCF5EF0C6
:10158000000E0001976F020E966F5DC058F05E501E
:10159000596E58C060F059C061F0D0EC10F00001F5
:1015A000965100019711D8A404D0D0EC10F0000E91
:1015B0001200600E00019425D96E000E00019521E5
:1015C000DA6EDF505A6E0001944B952B0001945156
:1015D0000001965D00019751800A506E00019551FF
:1015E000800A5058D8B004D0D0EC10F06F0E120022
:1015F0005A501200190E216E000E226ECAD0250E0E
:101600002818D8B404D02850C6EC11F0C2D0000E6F
:10161000236E01D0238817C0F6FF18C0F7FF174AC2
:10162000182AF86A0800F5CF28F02850000AD8B424
:101630001200640AD8B407D00D0AD8B404D0050A41
:10164000D8B4E8D7A6D023A80ED021C0D9FF22C095
:10165000DAFFDECF24F0DECF25F0DECF26F0DECFBE
:1016600027F0040E0ED021C0D9FF22C0DAFFDECF52
:1016700024F0DDCF25F0000E25BEFF0E266E276E6E
:10168000020E2126000E222227AE0AD0030E2312BC
:10169000271E261E251E246C000E25222622272208
:1016A000010E286E0A0E2818D8B41BD02850040D3D
:1016B000010EF324F66E0F0EF420F76EF86A000E9A
:1016C000F8220900F550245C0900F550255809005E
:1016D000F55026580900F5502758D8A002D0282ADE
:1016E000E1D723C01DF0030E1D16D8B403D02D0E74
:1016F000C6EC11F028501F6E206A1FBE200641D094
:101700001FC01DF020C01EF0D8901D361E36D89088
:101710001D361E36010E1D24F66E0F0E1E20F76EAE
:10172000F86A000EF8220900F5CF05F00900F5CFA0
:1017300006F00900F5CF07F00A00F5CF08F024C045
:1017400001F025C002F026C003F027C004F055ECDC
:101750000FF001C00EF002C00FF003C010F004C083
:1017600011F00A0E126E000E136E000E146E000EB3
:10177000156E4CEC10F00E50300F286E2850C6EC51
:1017800011F01F06D8A020061F28BAE12028D8A4EF
:10179000B7D717C0F6FF18C0F7FF174A182AF86A1C
:1017A0000800F5CF28F02850D8B4120028D72B6EA7
:1017B000580E176E0F0E186E98C019F099C01AF0D7
:1017C0002BC01BF01C6AFAEC0AF0000198510001D2
:1017D0009911D8A423D02BC0E8F00001984B992B85
:1017E000000E2A6E000E296E2ABE08D02A5005E18E
:1017F000200E295CD8B0120001D01200600E2924FE
:10180000D96E000E2A20DA6E420EDF6E294A2A2A8D
:101810002ABEF4D72A5001E1EBD712000001980547
:1018200000019911D8A425D02BC0A5F00001984B38
:10183000992B0A0E0001E819D8A40BD0A5C001F01D
:10184000026A96EC0FF0000E0001996F000E986F7F
:1018500012000B0E0001E819D8A41200A5C001F077
:10186000026AD3EC0FF0000E0001996F000E986F22
:101870001200020E0001981900019911D8A406D097
:101880002BC0A4F00001984B992B1200030E00010D
:10189000981900019911D8A406D02BC0A3F000011B
:1018A000984B992B1200040E000198190001991110
:1018B000D8A406D02BC0A2F00001984B992B12009F
:1018C000050E0001981900019911D8A406D02BC06B
:1018D000A1F00001984B992B1200060E00019819F7
:1018E00000019911D8A406D02BC0A0F00001984B9C
:1018F000992B12000001984B992B1200000E176EC5
:10190000000E0E6E020E0D6E0AD00D500224D96E1E
:101910000E500320DA6EDF5017260D4A0E2A0450AF
:101920000D5C0E50800A0A6E0550800A0A58D8A035
:10193000ECD7171E8C88000E106E000E0F6E0BD0A9
:101940000F500224D96E10500320DA6EDF50C0EC25
:1019500011F00F4A102A04500F5C1050800A0A6ED2
:101960000550800A0A58D8A0EBD71750C0EC11F0E8
:10197000E40E00D000D0E82EFCD700D000D08C9828
:10198000060E08240B6E000E09200C6E000E126E5F
:10199000000E116E0AD011500624D96E1250072085
:1019A000DA6E7A0EDF6E114A122A0B50115C125059
:1019B000800A0A6E0C50800A0A58D8A0ECD7A4EC12
:1019C00011F002D0A4EC11F00A6E0A50136E146AE2
:1019D00013281410D8A4F6D706C0D9FF07C0DAFF21
:1019E00013C0DFFF000E166E010E156E0BD01550E2
:1019F0000624D96E16500720DA6EA4EC11F0DF6EC3
:101A0000154A162A0B50155C1650800A0A6E0C50A7
:101A1000800A0A58D8A0EBD7050E0A6E260EE82ECB
:101A2000FED70A2EFCD700D020EE04F00650D926AF
:101A30000750DA22DF501200000E0001BA6F0001D9
:101A4000B8AF08D00001B76DB81FD8B0B82B010EE1
:101A50000001BA6F0001B6AF08D00001B56DB61F26
:101A6000D8B0B62B010E0001BA1B000E0001BC6FEE
:101A7000000EBB6F0001B7510001B811D8B42CD0D3
:101A8000010E0001B96F06D00001D890B737B83702
:101A90000001B92B0001B8AFF7D70001D890BB37D0
:101AA000BC370001B7510001B55D0001B85100011C
:101AB000B659D8A00AD00001B7510001B55F0001A6
:101AC000B8510001B65B0001BB810001D890B8336A
:101AD000B7330001B92FE1D70001BA510001D8B4E2
:101AE00005D00001BB6DBC1FD8B0BC2BBBC0B5F08E
:101AF000BCC0B6F01200000E0001BD6F000EBE6F3C
:101B0000000EBF6F000EC06F0001B9510001BA1185
:101B10000001BB110001BC11D8B442D0010E00017C
:101B2000C16F08D00001D890B937BA37BB37BC377E
:101B30000001C12B0001BCAFF5D70001D890BD3723
:101B4000BE37BF37C0370001B9510001B55D000194
:101B5000BA510001B6590001BB510001B75900014B
:101B6000BC510001B859D8A012D00001B9510001F0
:101B7000B55F0001BA510001B65B0001BB51000125
:101B8000B75B0001BC510001B85B0001BD810001E1
:101B9000D890BC33BB33BA33B9330001C12FCDD792
:101BA000BDC0B5F0BEC0B6F0BFC0B7F0C0C0B8F0A1
:101BB0001200C7A0C7B002D09E9612009EA641D0C8
:101BC000C7A416D0C7BA09D000019E510FEC0AF085
:101BD000C96E00019E4B9F2BC688C7AA09D0000181
:101BE0009E510FEC0AF0C96E00019E4B9F2BC688D8
:101BF000C7B427D0C7BA06D0010E0001E96FC9CF1C
:101C0000A6F0C688C7AA1DD00001E951D8B40CD0EF
:101C1000C9CF9EF000019F6B00019E51D7EC0BF0E5
:101C2000000E0001E96F03D0C950D7EC0BF0C6AE2F
:101C300007D0C69EC9CFA6F00001A651D7EC0BF085
:101C4000C688A1A60AD0BF0E176E0F0E186EFAEC4A
:101C50000AF0C9CFA6F0A196C6889E961200000190
:101C6000C6510001C7110001C8110001C911D8B443
:101C70003AD0010E0001CA6F08D00001D890C637D3
:101C8000C737C837C9370001CA2B0001C9AFF5D71C
:101C90000001C6510001C25D0001C7510001C359D6
:101CA0000001C8510001C4590001C9510001C559C2
:101CB000D8A010D00001C6510001C25F0001C75179
:101CC0000001C35B0001C8510001C45B0001C951A0
:101CD0000001C55B0001D890C933C833C733C63390
:101CE0000001CA2FD5D7C2C0C2F0C3C0C3F0C4C060
:101CF000C4F0C5C0C5F012001AC001F01BC002F04C
:101D000010EC10F001C04EF002C04FF0346835689E
:101D100018C036F0000E496E020E486E020E4824BE
:101D20004A6E000E49204B6E4AC037F0000E4D6ED1
:101D3000020E4C6E4CC038F01AC039F04EC03AF06A
:101D4000340E026E000E036E000E056E070E046E5A
:101D50001E0E066E000E076E000E096E010E086E56
:101D60007EEC0CF01C6E1C50326E336A4E044F1029
:101D7000D8A404D023C018F0196A120024501D6E94
:101D80001C6A23501C24186E000E1D20196E1200B0
:101D90000001BEBF08D00001BE510FE10A0E0001D4
:101DA000BD5DD8B00AD0D00E0001BF6FC90EE82EBD
:101DB000FED7BF2FFCD700D01200BDC0B5F0BEC00B
:101DC000B6F0000E0001B86F0A0EB76F1CEC0DF0F4
:101DD000B5C0C0F0B6C0C1F0000E0001C36F000E68
:101DE000C26F0CD0D00E0001BF6FC90EE82EFED717
:101DF000BF2FFCD700D00001C24BC32B0001C05144
:101E00000001C25D0001C351800A0001BF6F0001E3
:101E1000C151800A0001BF59D8B01200E3D71AC0DF
:101E200001F01BC002F010EC10F001C04DF002C038
:101E30004EF03368346818C035F0030E4D24476EF9
:101E4000000E4E20486E47C036F0000E4A6E030E5C
:101E5000496E49C037F01AC038F04D044E10D8A46E
:101E600003D01CC039F004D01CC039F01D503A6EAC
:101E7000330E026E000E036E060E4D24046E000E2D
:101E80004E20056E1F0E066E000E076E000E096EC8
:101E9000000E086E7EEC0CF01E6E1E504B6E4C6AEF
:101EA0004BC018F04CC019F01200000E096E000E65
:101EB0000A6E000E0B6E000E0C6E05500610071019
:101EC0000810D8B42AD0010E0D6E06D0D890053671
:101ED0000636073608360D2A08AEF8D7D8900936E8
:101EE0000A360B360C360550015C06500258075076
:101EF000035808500458D8A009D00550015E065078
:101F0000025A0750035A0850045A0980D8900832E0
:101F10000732063205320D2EE1D709C001F00AC0A2
:101F200002F00BC003F00CC004F0120014D08C8639
:101F300012008C8412008C8212008C8012008B8420
:101F400012008B8212008B8012008A8012008A8419
:101F500012008A86120001C003F002C004F004508F
:101F6000000AD8A412000350010AD8B4E0D7030A2B
:101F7000D8B4DFD7010AD8B4DED7070AD8B4DDD782
:101F8000010AD8B4DCD7030AD8B4DBD7010AD8B425
:101F9000DAD70F0AD8B4D9D7010AD8B4D8D7030AE8
:101FA000D8A41200D6D714D08C9612008C941200AC
:101FB0008C9212008C9012008B9412008B92120063
:101FC0008B9012008A9012008A9412008A96120056
:101FD00001C003F002C004F00450000AD8A41200AB
:101FE0000350010AD8B4E0D7030AD8B4DFD7010AF6
:101FF000D8B4DED7070AD8B4DDD7010AD8B4DCD705
:10200000030AD8B4DBD7010AD8B4DAD70F0AD8B498
:10201000D9D7010AD8B4D8D7030AD8A41200D6D782
:102020000AD0000E026E020E016E1200000E026E49
:10203000010E016E120001C003F002C004F0045052
:10204000000AD8A4F3D70350000AD8B4EAD7060A86
:10205000D8B4E7D70E0AD8B4E4D7060AD8B4E1D783
:102060001A0AD8B4DED7020AD8B4DBD7080AD8B423
:10207000D8D73E0AD8B4D5D7020AD8B4D2D7060AE0
:10208000D8B4CFD7020AD8B4CCD70E0AD8B4C9D79F
:10209000180AD8B4C6D7CAD7125013101410151086
:1020A000D8B424D0010E166E06D0D890123613364E
:1020B00014361536162A15AEF8D712500E5C13508A
:1020C0000F581450105815501158D8A008D012505D
:1020D0000E5E13500F5A1450105A1550115AD890C2
:1020E0001532143213321232162EE7D70EC00EF00C
:1020F0000FC00FF010C010F011C011F012002F68C7
:10210000306818C031F0000E446E000E436E020EAF
:102110004324456E000E4420466E45C032F0000E4A
:10212000486E010E476E47C033F02F0E026E000E50
:10213000036E000E056E050E046E1B0E066E000E7D
:10214000076E000E096E000E086E7EEC0CF01A6E23
:102150001A50496E4A6A49C018F04AC019F0120074
:102160000001B96FB9C0B7F00001B747B747C25017
:102170000001B719830BB719C26EC280C282C2B206
:10218000FED7C4500001B86FB76BC3500001B7252C
:102190000001B56F000E0001B8210001B66F1200FA
:1021A000000E0001956F000E946F0001E869000EAB
:1021B0000001A56F000E0001A46F000E0001A36FC7
:1021C000000E0001A26F000E0001A16F000E0001C1
:1021D000A06F000E0001996F000E986F1200300E74
:1021E000CD6E000EAA6EF80ECF6E300ECE6ECE50B3
:1021F000CFCFB5F00001B66BB5C0B6F00001B56B3E
:102200000001B51100019C6F0001B65100019D6FE6
:102210009E90CBEC11F01200000E8D6E000E8C6EB5
:10222000000E896E000E8A6E000E8B6E070E966E83
:10223000EF0E926EF20E936EB80E946EA00E956E27
:102240000F015D697B0E0F015C6FFE0E0F015B6F6E
:102250001200A20EF66E230EF76E000EF86E090045
:10226000F5CFE8F00900F5CFE9F00900F5CFEAF085
:1022700000EE60F0470EEE6AE806FDE15F905F92C7
:102280000001E5EF07F0056E05C003F003460346C5
:10229000C2500318830B0318C26EC280C282C2B23E
:1022A000FED7C450046E036AC3500324016E000EAF
:1022B0000420026E1200CDEC11F00CEC11F09BEC3E
:1022C00011F06CEC11F079EC11F0EFEC10F090ECF7
:1022D00011F085EC11F01200000EC76E3E0EC66EB6
:1022E000010EC56EFE0EC86E100EC86E9E969D86BF
:1022F0001200010EC26E800EC16E160EC06E000E70
:10230000C46E000EC36E9D8C1200180EB96E900E36
:10231000A66EA60EBA6E8A0E7B6E000E7C6E120042
:10232000080EA76E900EAB6EA40EAC6E0F0EAF6EC5
:10233000000E7D6E1200600ED36E000ED26E000E87
:102340009B6E000E9A6E12009EAAFED7ABA202D020
:10235000AB9EAB8EAE5012000001B66F0001B651BD
:10236000B3EC11F012000001B56FA4A8FED7B5C000
:1023700079FF1200016EA4A8FED701C079FF1200F8
:10238000016E9EA8FED701C0ADFF1200026E025082
:10239000BAEC11F01200CD801200D09E12009E9C6B
:0523A0001200FF0155D1
:020000040020DA
:08000000FFFFFFFFFFFFFFFF00
:020000040030CA
:0E00000015127F7CFF8991FF0FC00FE00F40AB
:00000001FF
