:040000004BEF00F0D2
:100008005F82FACFA7F0FBCFA8F0E9CFA9F0EACF3B
:10001800AAF0E1CFABF0E2CFACF0D9CFADF0DACFB8
:10002800AEF0F3CFAFF0F4CFB0F0F6CFB1F0F7CF3A
:10003800B2F0F8CFB3F0F5CFB4F0F2BC9DAC03D07A
:100048009EBC64EC11F0F2BC9DA603D09EB66EEC8B
:100058000DF0B4C0F5FFB3C0F8FFB2C0F7FFB1C0F0
:10006800F6FFB0C0F4FFAFC0F3FFAEC0DAFFADC01B
:10007800D9FFACC0E2FFABC0E1FFAAC0EAFFA9C04C
:10008800E9FFA8C0FBFFA7C0FAFF5F921100BEEF0F
:0200980010F066
:100F000000010000000A00000064000000E8030087
:100F10000010270000A086010040420F0080969834
:100F20000000E1F50500CA9A3B52656164696E678D
:100F300020616C6C204144430D0A00496E697420A5
:100F4000636F6D706C657465640D0A0041444320E5
:100F50002564203A20256C640D0A00504D20526F04
:100F6000626F7469780D0A00636F6C6C6964650D5B
:030F70000A000074
:100F7400000E0001E36F000EE26F0001E3BF08D032
:100F84000001E35118E10A0E0001E25DD8B013D06C
:100F9400D8900001E235D96E0001E335DA6E800E97
:100FA400D926000EDA22000EDE6E000EDD6E000180
:100FB400E24BE32BE2D7F0EC10F08C86F28E8C84BB
:100FC400F28C5B0E0001CB6F0F0E0001CC6FE2ECD4
:100FD40008F03B0E0001CB6F0F0E0001CC6FE2EC6A
:100FE40008F0000E0001E76F0A0EE66F8C828C8019
:100FF400000E0001DF6F000EDE6F0001DFBF08D0BE
:101004000001DF515FE1020E0001DE5DD8B05AD06D
:101014008C86E6C0BDF0E7C0BEF05DEC0EF08C96A9
:101024008C84E6C0BDF0E7C0BEF05DEC0EF08C949D
:101034008C82E6C0BDF0E7C0BEF05DEC0EF08C9291
:101044008C80E6C0BDF0E7C0BEF05DEC0EF08C9085
:101054008B84E6C0BDF0E7C0BEF05DEC0EF08B946F
:101064008B82E6C0BDF0E7C0BEF05DEC0EF08B9263
:101074008B80E6C0BDF0E7C0BEF05DEC0EF08B9057
:101084008A80E6C0BDF0E7C0BEF05DEC0EF08A9049
:101094008A84E6C0BDF0E7C0BEF05DEC0EF08A9431
:1010A4008A86E6C0BDF0E7C0BEF05DEC0EF08A961D
:1010B400E6C0BDF0E7C0BEF05DEC0EF00001DE4B13
:1010C400DF2B9BD78C988A866BD00001E1BF07D0B9
:1010D4000001E15165E10001E005D8B061D0290EBD
:1010E4000001CB6F0F0E0001CC6FE2EC08F0000E94
:1010F4000001E56F000EE46F0001E5BF08D00001B8
:10110400E55143E10A0E0001E45DD8B03ED0000190
:10111400E45145EC10F0040E0001DD6F0001D8909D
:10112400B633B5330001DD2FF9D7D8900001E4358B
:10113400D96E0001E535DA6E800ED926000EDA226A
:101144000001B5C0DEFF0001B6C0DDFF4C0E00019A
:10115400CB6F0F0E0001CC6FE4C0CDF0E5C0CEF034
:10116400D8900001E435D96E0001E535DA6E800EC1
:10117400D926000EDA22DECFCFF0DDCFD0F0E2ECBC
:1011840008F00001E44BE52BB7D7000E0001BE6F59
:10119400320EBD6F5DEC0EF00001E04BE12B95D7F4
:1011A400010E0001BE6FF40EBD6F5DEC0EF08A9669
:1011B400010E0001BE6FF40EBD6F5DEC0EF083D71F
:1011C400CD0E0001D56F000E0001D66FEBD0250EB9
:1011D4000001DC19D8B405D00001DC5141EC11F058
:1011E400E1D0000E0001D76F02D00001D789CBC037
:1011F400F6FFCCC0F7FF0001CB4BCC2BF86A0800FC
:10120400F5CFDCF00001DC51000AD8B41200640A06
:10121400D8B407D00D0AD8B404D0050AD8B4E5D799
:10122400C1D00001D7A90ED0D5C0D9FFD6C0DAFFEE
:10123400DECFD8F0DECFD9F0DECFDAF0DECFDBF0D0
:10124400040E0FD0D5C0D9FFD6C0DAFFDECFD8F058
:10125400DDCFD9F00001000ED9BFFF0EDA6FDB6FCE
:10126400020E0001D527000ED6230001DBAF0CD0FF
:10127400030E0001D7130001DB1FDA1FD91FD86D3D
:10128400000ED923DA23DB23010E0001DC6F0A0EE2
:101294000001DC19D8B421D00001DC51040D010E89
:1012A400F324F66E0F0EF420F76EF86A000EF8229F
:1012B4000900F5500001D85D0900F5500001D95925
:1012C4000900F5500001DA590900F5500001DB5915
:1012D400D8A003D00001DC2BDAD7D7C0D1F0030E9D
:1012E4000001D117D8B403D02D0E41EC11F0000148
:1012F400DC510001D36FD46BD3BFD40748D0D3C023
:10130400D1F0D4C0D2F00001D890D137D237000147
:10131400D890D137D237010E0001D125F66E0F0EC9
:10132400D221F76EF86A000EF8220900F5CFB9F061
:101334000900F5CFBAF00900F5CFBBF00A00F5CFEC
:10134400BCF0D8C0B5F0D9C0B6F0DAC0B7F0DBC095
:10135400B8F010EC0DF0B5C0C2F0B6C0C3F0B7C021
:10136400C4F0B8C0C5F00A0E0001C66F000EC76F06
:10137400000EC86F000EC96FC4EC0DF00001C2511D
:10138400300F0001DC6F0001DC5141EC11F0000171
:10139400D307D8A0D4070001D329B1E10001D4298F
:1013A400D8A4ADD7CBC0F6FFCCC0F7FF0001CB4B20
:1013B400CC2BF86A0800F5CFDCF00001DC51D8B47E
:1013C400120005D7190E1D6E000E1E6ECAD0250E12
:1013D4002418D8B404D024505BEC11F0C2D0000E11
:1013E4001F6E01D01F8817C0F6FF18C0F7FF174AF9
:1013F400182AF86A0800F5CF24F02450000AD8B45B
:101404001200640AD8B407D00D0AD8B404D0050A6F
:10141400D8B4E8D7A6D01FA80ED01DC0D9FF1EC0CF
:10142400DAFFDECF20F0DECF21F0DECF22F0DECFF8
:1014340023F0040E0ED01DC0D9FF1EC0DAFFDECF8C
:1014440020F0DDCF21F0000E21BEFF0E226E236EB0
:10145400020E1D26000E1E2223AE0AD0030E1F12FA
:10146400231E221E211E206C000E21222222232252
:10147400010E246E0A0E2418D8B41BD02450040D77
:10148400010EF324F66E0F0EF420F76EF86A000EC8
:10149400F8220900F550205C0900F5502158090094
:1014A400F55022580900F5502358D8A002D0242A18
:1014B400E1D71FC019F0030E1916D8B403D02D0EAE
:1014C4005BEC11F024501B6E1C6A1BBE1C0641D041
:1014D4001BC019F01CC01AF0D89019361A36D890CF
:1014E40019361A36010E1924F66E0F0E1A20F76EED
:1014F400F86A000EF8220900F5CF05F00900F5CFCF
:1015040006F00900F5CF07F00A00F5CF08F020C077
:1015140001F021C002F022C003F023C004F0EAEC81
:101524000EF001C00EF002C00FF003C010F004C0B2
:1015340011F00A0E126E000E136E000E146E000EE1
:10154400156EE1EC0FF00E50300F246E24505BEC5E
:1015540011F01B06D8A01C061B28BAE11C28D8A42D
:10156400B7D717C0F6FF18C0F7FF174A182AF86A4A
:101574000800F5CF24F02450D8B4120028D7140E54
:101584000001E819D8A413D0A5C018F0196A14EC06
:1015940010F018C052F019C053F0000E0001976FFC
:1015A400010E966F52C060F065EC10F080D0150EFD
:1015B4000001E819D8A41CD0A5C018F0196AA4C069
:1015C4001AF01B6A11EC0EF018C05BF019C05CF045
:1015D400000E0001976F020E966F5BC056F05C50D0
:1015E400576E56C060F057C061F065EC10F05FD0E4
:1015F400160E0001E819D8A421D0A5C018F0196A64
:10160400A4C01AF01B6A0001A251516E506A000175
:10161400A35150241C6E000E51201D6EA4EC0EF03C
:1016240018C054F019C055F0000E0001976F010E58
:10163400966F54C060F065EC10F039D00C0E0001C8
:10164400E819D8A434D00001A551D8EC10F0040E48
:10165400506ED89002320132502EFBD70001A551B2
:10166400020D800EF324D96E000EF420DA6E01C050
:10167400DEFF02C0DDFF0001A551020D800EF32440
:10168400D96E000EF420DA6EDECF5DF0DDCF5EF0B1
:10169400000E0001976F020E966F5DC058F05E5009
:1016A400596E58C060F059C061F065EC10F000014B
:1016B400965100019711D8A404D065EC10F0000EE7
:1016C4001200600E00019425D96E000E00019521D0
:1016D400DA6EDF505A6E0001944B952B0001945141
:1016E4000001965D00019751800A506E00019551EA
:1016F400800A5058D8B004D065EC10F06F0E120078
:101704005A501200076E0001985100019911D8A493
:1017140023D007C0E8F00001984B992B000E066E09
:10172400000E056E06BE08D0065005E1200E055CCD
:10173400D8B0120001D01200600E0524D96E000E3C
:101744000620DA6E420EDF6E054A062A06BEF4D77C
:10175400065001E1EBD71200000198050001991130
:10176400D8A425D007C0A5F00001984B992B0A0EE8
:101774000001E819D8A40BD0A5C001F0026A2BEC33
:101784000FF0000E0001996F000E986F12000B0EFF
:101794000001E819D8A41200A5C001F0026A68EC9F
:1017A4000FF0000E0001996F000E986F1200020EE8
:1017B4000001981900019911D8A406D007C0A4F01B
:1017C4000001984B992B1200030E00019819000197
:1017D4009911D8A406D007C0A3F00001984B992B07
:1017E4001200040E0001981900019911D8A406D022
:1017F40007C0A2F00001984B992B1200050E0001BE
:10180400981900019911D8A406D007C0A1F00001CD
:10181400984B992B1200060E00019819000199119A
:10182400D8A406D007C0A0F00001984B992B120051
:101834000001984B992B1200000E176E000E0E6ECD
:10184400020E0D6E0AD00D500224D96E0E500320E4
:10185400DA6EDF5017260D4A0E2A04500D5C0E5026
:10186400800A0A6E0550800A0A58D8A0ECD7171EC1
:101874008C88000E106E000E0F6E0BD00F500224D9
:10188400D96E10500320DA6EDF5055EC11F00F4A78
:10189400102A04500F5C1050800A0A6E0550800A0A
:1018A4000A58D8A0EBD7175055EC11F0060E0824AF
:1018B4000B6E000E09200C6E000E126E000E116EDF
:1018C4000AD011500624D96E12500720DA6E070E82
:1018D400DF6E114A122A0B50115C1250800A0A6EF4
:1018E4000C50800A0A58D8A0ECD7350EE82EFED743
:1018F40000F08C9839EC11F002D039EC11F00A6E3A
:101904000A50136E146A13281410D8A4F6D706C00C
:10191400D9FF07C0DAFF13C0DFFF000E166E010EF9
:10192400156E0BD015500624D96E16500720DA6EAA
:1019340039EC11F0DF6E154A162A0B50155C16505F
:10194400800A0A6E0C50800A0A58D8A0EBD720EE01
:1019540004F00650D9260750DA22DF501200000E98
:101964000001BA6F0001B8AF08D00001B76DB81F0D
:10197400D8B0B82B010E0001BA6F0001B6AF08D081
:101984000001B56DB61FD8B0B62B010E0001BA1B0D
:10199400000E0001BC6F000EBB6F0001B7510001C7
:1019A400B811D8B42CD0010E0001B96F06D00001D3
:1019B400D890B737B8370001B92B0001B8AFF7D7C3
:1019C4000001D890BB37BC370001B7510001B55DA9
:1019D4000001B8510001B659D8A00AD00001B7518E
:1019E4000001B55F0001B8510001B65B0001BB8185
:1019F4000001D890B833B7330001B92FE1D7000103
:101A0400BA510001D8B405D00001BB6DBC1FD8B0D9
:101A1400BC2BBBC0B5F0BCC0B6F01200000E000178
:101A2400BD6F000EBE6F000EBF6F000EC06F0001D1
:101A3400B9510001BA110001BB110001BC11D8B4A5
:101A440042D0010E0001C16F08D00001D890B9370F
:101A5400BA37BB37BC370001C12B0001BCAFF5D787
:101A64000001D890BD37BE37BF37C0370001B95128
:101A74000001B55D0001BA510001B6590001BB5126
:101A84000001B7590001BC510001B859D8A012D0C7
:101A94000001B9510001B55F0001BA510001B65B04
:101AA4000001BB510001B75B0001BC510001B85BF0
:101AB4000001BD810001D890BC33BB33BA33B933C4
:101AC4000001C12FCDD7BDC0B5F0BEC0B6F0BFC0B8
:101AD400B7F0C0C0B8F01200C7A0C7B002D09E963D
:101AE40012009EA641D0C7A416D0C7BA09D00001DF
:101AF4009E51C1EC0AF0C96E00019E4B9F2BC68813
:101B0400C7AA09D000019E51C1EC0AF0C96E0001B8
:101B14009E4B9F2BC688C7B427D0C7BA06D0010EE8
:101B24000001E96FC9CFA6F0C688C7AA1DD000017D
:101B3400E951D8B40CD0C9CF9EF000019F6B0001CD
:101B44009E5184EC0BF0000E0001E96F03D0C950E4
:101B540084EC0BF0C6AE07D0C69EC9CFA6F0000138
:101B6400A65184EC0BF0C688A1A60AD0680E176EA5
:101B74000F0E186EE4EC09F0C9CFA6F0A196C68842
:101B84009E9612000001C6510001C7110001C81140
:101B94000001C911D8B43AD0010E0001CA6F08D0AF
:101BA4000001D890C637C737C837C9370001CA2BD8
:101BB4000001C9AFF5D70001C6510001C25D0001A3
:101BC400C7510001C3590001C8510001C4590001A3
:101BD400C9510001C559D8A010D00001C651000157
:101BE400C25F0001C7510001C35B0001C85100017D
:101BF400C45B0001C9510001C55B0001D890C93321
:101C0400C833C733C6330001CA2FD5D7C2C0C2F008
:101C1400C3C0C3F0C4C0C4F0C5C0C5F012001AC02C
:101C240001F01BC002F0A5EC0FF001C04EF002C0A1
:101C34004FF03468356818C036F0000E496E020E55
:101C4400486E020E48244A6E000E49204B6E4AC06C
:101C540037F0000E4D6E020E4C6E4CC038F01AC0B8
:101C640039F04EC03AF0340E026E000E036E000ED0
:101C7400056E070E046E1E0E066E000E076E000E35
:101C8400096E010E086E1EEC0CF01C6E1C50326EB8
:101C9400336A4E044F10D8A404D023C018F0196A34
:101CA400120024501D6E1C6A23501C24186E000E52
:101CB4001D20196E12000001BEBF08D00001BE51E4
:101CC4000FE10A0E0001BD5DD8B00AD0D00E0001AC
:101CD400BF6FC90EE82EFED7BF2FFCD700D012006D
:101CE400BDC0B5F0BEC0B6F0000E0001B86F0A0E5C
:101CF400B76FB1EC0CF0B5C0C0F0B6C0C1F0000EC7
:101D04000001C36F000EC26F0CD0D00E0001BF6F74
:101D1400C90EE82EFED7BF2FFCD700D00001C24B5E
:101D2400C32B0001C0510001C25D0001C351800AF0
:101D34000001BF6F0001C151800A0001BF59D8B032
:101D44001200E3D71AC001F01BC002F0A5EC0FF09B
:101D540001C04DF002C04EF03368346818C035F04D
:101D6400030E4D24476E000E4E20486E47C036F0D9
:101D7400000E4A6E030E496E49C037F01AC038F09F
:101D84004D044E10D8A403D01CC039F004D01CC09C
:101D940039F01D503A6E330E026E000E036E060EBD
:101DA4004D24046E000E4E20056E1F0E066E000EAE
:101DB400076E000E096E000E086E1EEC0CF01E6E0F
:101DC4001E504B6E4C6A4BC018F04CC019F01200F8
:101DD400000E096E000E0A6E000E0B6E000E0C6EE5
:101DE4000550061007100810D8B42AD0010E0D6E45
:101DF40006D0D89005360636073608360D2A08AEC2
:101E0400F8D7D89009360A360B360C360550015CE3
:101E1400065002580750035808500458D8A009D057
:101E24000550015E0650025A0750035A0850045ADE
:101E34000980D89008320732063205320D2EE1D7D8
:101E440009C001F00AC002F00BC003F00CC004F09A
:101E5400120014D08C8612008C8412008C82120022
:101E64008C8012008B8412008B8212008B801200F3
:101E74008A8012008A8412008A86120001C003F04C
:101E840002C004F00450000AD8A412000350010A4E
:101E9400D8B4E0D7030AD8B4DFD7010AD8B4DED760
:101EA400070AD8B4DDD7010AD8B4DCD7030AD8B4FA
:101EB400DBD7010AD8B4DAD70F0AD8B4D9D7010AC4
:101EC400D8B4D8D7030AD8A41200D6D714D08C9685
:101ED40012008C9412008C9212008C9012008B943D
:101EE40012008B9212008B9012008A9012008A9436
:101EF40012008A96120001C003F002C004F00450DC
:101F0400000AD8A412000350010AD8B4E0D7030A87
:101F1400D8B4DFD7010AD8B4DED7070AD8B4DDD7DE
:101F2400010AD8B4DCD7030AD8B4DBD7010AD8B481
:101F3400DAD70F0AD8B4D9D7010AD8B4D8D7030A44
:101F4400D8A41200D6D70AD0000E026E020E016E7B
:101F54001200000E026E010E016E120001C003F0A9
:101F640002C004F00450000AD8A4F3D70350000AB6
:101F7400D8B4EAD7060AD8B4E7D70E0AD8B4E4D757
:101F8400060AD8B4E1D71A0AD8B4DED7020AD8B4FC
:101F9400DBD7080AD8B4D8D73E0AD8B4D5D7020AB2
:101FA400D8B4D2D7060AD8B4CFD7020AD8B4CCD77B
:101FB4000E0AD8B4C9D7180AD8B4C6D7CAD712508B
:101FC400131014101510D8B424D0010E166E06D0B8
:101FD400D8901236133614361536162A15AEF8D79D
:101FE40012500E5C13500F581450105815501158BD
:101FF400D8A008D012500E5E13500F5A1450105A25
:102004001550115AD8901532143213321232162E3A
:10201400E7D70EC00EF00FC00FF010C010F011C0C3
:1020240011F012002F68306818C031F0000E446EB1
:10203400000E436E020E4324456E000E4420466E8D
:1020440045C032F0000E486E010E476E47C033F0B3
:102054002F0E026E000E036E000E056E050E046E4A
:102064001B0E066E000E076E000E096E000E086E43
:102074001EEC0CF01A6E1A50496E4A6A49C018F0E8
:102084004AC019F012000001B96FB9C0B7F00001DD
:10209400B747B747C2500001B719830BB719C26ECF
:1020A400C280C282C2B2FED7C4500001B86FB76BFF
:1020B400C3500001B7250001B56F000E0001B8211F
:1020C4000001B66F1200000E0001956F000E946FB0
:1020D4000001E869000E0001A56F000E0001A46F65
:1020E400000E0001A36F000E0001A26F000E00019C
:1020F400A16F000E0001A06F000E0001996F000E89
:10210400986F1200300ECD6E000EAA6EF80ECF6ED0
:10211400300ECE6ECE50CFCFB5F00001B66BB5C049
:10212400B6F00001B56B0001B51100019C6F000110
:10213400B65100019D6F9E9060EC11F01200000EEC
:102144008D6E000E8C6E000E896E000E8A6E000E6F
:102154008B6E070E966EEF0E926EF20E936EB80EA5
:10216400946EA00E956E0F015D697B0E0F015C6F7E
:10217400FE0E0F015B6F1200CC0EF66E220EF76E90
:10218400000EF86E0900F5CFE8F00900F5CFE9F08C
:102194000900F5CFEAF000EE60F0470EEE6AE806BB
:1021A400FDE15F905F920001BAEF07F0056E05C094
:1021B40003F003460346C2500318830B0318C26E90
:1021C400C280C282C2B2FED7C450046E036AC35036
:1021D4000324016E000E0420026E120062EC11F062
:1021E400A1EC10F030EC11F001EC11F00EEC11F058
:1021F40084EC10F025EC11F01AEC11F01200000E32
:10220400C76E3E0EC66E010EC56EFE0EC86E100E73
:10221400C86E9E969D861200010EC26E800EC16E1F
:10222400160EC06E000EC46E000EC36E9D8C12009E
:10223400180EB96E900EA66EA60EBA6E8A0E7B6E3E
:10224400000E7C6E1200080EA76E900EAB6EA40EEC
:10225400AC6E0F0EAF6E000E7D6E1200600ED36E6C
:10226400000ED26E000E9B6E000E9A6E12009EAA95
:10227400FED7ABA202D0AB98AB88AE5012000001DF
:10228400B66F0001B65148EC11F012000001B56FB1
:10229400A4A8FED7B5C079FF1200016EA4A8FED78A
:1022A40001C079FF1200016E9EA8FED701C0ADFFE8
:1022B4001200026E02504FEC11F01200CD80120099
:0B22C400D09E12009E9C1200FF0155EE
:020000040020DA
:08000000FFFFFFFFFFFFFFFF00
:020000040030CA
:0E00000015127F7CFF8991FF0FC00FE00F40AB
:00000001FF
