:040000004BEF00F0D2
:100008005F82FACF4DF0FBCF4EF0E9CF4FF0EACF49
:1000180050F0E1CF51F0E2CF52F0D9CF53F0DACF20
:1000280054F0F3CF55F0F4CF56F0F6CF57F0F7CFA2
:1000380058F0F8CF59F0F5CF5AF0F2BC9DAC03D088
:100048009EBCA7EC0FF0F2BC9DA603D09EB60BECAD
:100058000DF05AC0F5FF59C0F8FF58C0F7FF57C058
:10006800F6FF56C0F4FF55C0F3FF54C0DAFF53C083
:10007800D9FF52C0E2FF51C0E1FF50C0EAFF4FC0B4
:10008800E9FF4EC0FBFF4DC0FAFF5F9211005EEF23
:020098000EF068
:100F000000496E697420636F6D706C657465640D63
:100F10000A00504D20526F626F7469780D0A0063A9
:100F20006F6C6C6964650D0A0000AB9EAB8EAB986C
:100F3000000E2C6E8C88350EE82EFED700F0000EC9
:100F4000236E020E226E0AD022500324D96E235043
:100F50000420DA6EDF502C26224A232A0550225C18
:100F60002350800A0B6E0650800A0B58D8A0ECD78D
:100F70002C1E000E256E000E246E0BD02450032470
:100F8000D96E25500420DA6EDF5098EC0FF0244A19
:100F9000252A0550245C2550800A0B6E0650800AD5
:100FA0000B58D8A0EBD72C5098EC0FF0060E092464
:100FB000306E000E0A20316E000E276E000E266E77
:100FC0000AD026500724D96E27500820DA6E000E6A
:100FD000DF6E264A272A3050265C2750800A0B6E87
:100FE0003150800A0B58D8A0ECD7350EE82EFED72A
:100FF00000F08C98AB9EAB8EAB88000E1F6E000E7F
:101000001E6E000E216E000E206EF2EC0EF00B6EC6
:101010000B502E6E2F6A2E282F10D8A415D0000E3C
:10102000216E010E206E14D0F2EC0EF00B6E0B5000
:101030002E6E2F6A1E4A1F2A1FBE06D01F5008E1BF
:10104000060E1E5CD8B004D02E282F10D8A4ECD7E2
:1010500020502110D8A402D0FB0E120007C0D9FFE7
:1010600008C0DAFF2EC0DFFF000E296E010E286EC9
:1010700016D028500724D96E29500820DA6EF2ECD9
:101080000EF0DF6E20EE01F00750D9260850DA226C
:10109000DE28D8B402D0FA0E1200284A292A30508D
:1010A000285C2950800A0B6E3150800A0B58D8A05A
:1010B000E0D707C0D9FF08C0DAFFDF500B6E0B5036
:1010C000106E116A20EE01F00750D9260850DA227E
:1010D000DF500B6E0B50126E136A20EE02F00750B9
:1010E000D9260850DA22DF500B6E0B50146E156AA9
:1010F00020EE03F00750D9260850DA22DF500B6E9D
:101100000B50166E176A20EE04F00750D9260850CF
:10111000DA22DF500B6E0B50186E196A20EE05F0C4
:101120000750D9260850DA22DF500B6E0B501A6E8A
:101130001B6A20EE06F00750D9260850DA22DF504D
:101140000B6E0B501C6E1D6A000E2D6E000E2B6E6A
:10115000020E2A6E0AD02A500724D96E2B5008207E
:10116000DA6EDF502D262A4A2B2AFF0E0B6EFF0E59
:101170000C6E30C00DF031C00EF00B500D260C502F
:101180000E220D502A5C2B50800A0F6E0E50800AE2
:101190000F58D8A0E0D72D1E8C88350EE82EFED72C
:1011A00000F0FF0E0B6EFF0E0C6E30C00DF031C064
:1011B0000EF00B500D260C500E220D500724D96E48
:1011C0000E500820DA6E2D50DE18D8B402D0FD0E75
:1011D000120020EE04F00750D9260850DA22DF5022
:1011E0001200140E5E18D8A413D05DC032F0336A1A
:1011F00038EC0CF032C03CF033C03DF0000E000182
:10120000976F010E966F3CC060F0BBEC0EF099D06A
:10121000150E5E18D8A426D0000E4A6E000E496E38
:101220005DC032F0336AA2C034F0356A490E366EC2
:10123000000E376E88EC0AF032C045F033C046F03D
:10124000000E0001976F030E966F45C040F04650A8
:10125000416E40C060F041C061F049C062F0BBEC3B
:101260000EF06FD0160E5E18D8A421D05DC032F0FB
:10127000336AA2C034F0356A0001A0513B6E3A6A6D
:101280000001A1513A24366E000E3B20376E23EC4C
:101290000BF032C03EF033C03FF0000E0001976FFC
:1012A000010E966F3EC060F0BBEC0EF04AD00C0E03
:1012B0005E18D8A446D05D500DEC0FF0040E3A6EC7
:1012C000D890023201323A2EFBD701C04BF002C057
:1012D0004CF04B2804E10F0E4C18D8B407D0FE0E8A
:1012E0004B1808E10F0E4C18D8A404D0000E4C6E19
:1012F000000E4B6E5D50020D800EF324D96E000E71
:10130000F420DA6E4BC0DEFF4CC0DDFF5D50020DF5
:10131000800EF324D96E000EF420DA6EDECF47F093
:10132000DDCF48F0000E0001976F020E966F47C0A8
:1013300042F04850436E42C060F043C061F0BBECE5
:101340000EF00001965100019711D8A404D0BBEC17
:101350000EF0000E1200600E00019425D96E000EF2
:1013600000019521DA6EDF50446E0001944B952BFD
:10137000000194510001965D00019751800A3A6E78
:1013800000019551800A3A58D8B004D0BBEC0EF059
:101390006F0E120044501200000E0101126F000E79
:1013A000116F010112BF08D00101125118E10A0E9C
:1013B0000101115DD8B013D0D89001011135D96E5B
:1013C00001011235DA6E800ED926000EDA22000EE7
:1013D000DE6E000EDD6E0101114B122BE2D73BECED
:1013E0000FF08C86F28E8C84F28C120E0101026F4B
:1013F0000F0E0101036FD7EC0EF0010E0101026F19
:101400000F0E0101036FD7EC0EF0000E0101146FF7
:101410000A0E136F8C828C80000E0101106F000E7B
:101420000F6F010110BF08D0010110515FE1020EE2
:1014300001010F5DD8B05AD08C8613C108F114C1D8
:1014400009F161EC0DF08C968C8413C108F114C184
:1014500009F161EC0DF08C948C8213C108F114C178
:1014600009F161EC0DF08C928C8013C108F114C16C
:1014700009F161EC0DF08C908B8413C108F114C15B
:1014800009F161EC0DF08B948B8213C108F114C14A
:1014900009F161EC0DF08B928B8013C108F114C13E
:1014A00009F161EC0DF08B908A8013C108F114C131
:1014B00009F161EC0DF08A908A8413C108F114C11E
:1014C00009F161EC0DF08A948A8613C108F114C108
:1014D00009F161EC0DF08A9613C108F114C109F10C
:1014E00061EC0DF001010F4B102B9BD78C988A8675
:1014F000010E0101096FF40E086F61EC0DF08A9680
:10150000010E0101096FF40E086F61EC0DF0EFD7C9
:1015100034C001F035C002F022EC0EF001C0D4F06E
:1015200002C0D5F00001B8690001B96932C0BAF053
:10153000000E0001CD6F020ECC6F020E0001CC2513
:101540000001CE6F000E0001CD210001CF6FCEC093
:10155000BBF0000E0001D16F020ED06FD0C0BCF006
:1015600034C0BDF0D4C0BEF0B80E036E000E046EE1
:10157000000E066E070E056EA40E076E000E086EB6
:10158000D4C009F0D5C00AF095EC07F0386E385099
:101590000001D26FD36B0001D2510001D311D8B436
:1015A00017D0B80E036E000E046E000E066E070E06
:1015B000056EA40E076E000E086ED4C009F0D5C0EB
:1015C0000AF095EC07F0386E38500001D26FD36BFB
:1015D0000001D2510001D311D8B417D0B80E036E58
:1015E000000E046E000E066E070E056EA40E076E4A
:1015F000000E086ED4C009F0D5C00AF095EC07F0D3
:10160000386E38500001D26FD36B36C0D9FF37C067
:10161000DAFFD2C0DEFFD3C0DDFF0001D405000138
:10162000D511D8A404D0A9C032F0336A1200000149
:10163000AA51396E386A0001A9513824326E000E61
:101640003920336E120034C001F035C002F022ECB4
:101650000EF001C0D2F002C0D3F00001B869000161
:10166000B96932C0BAF0030E0001D2250001CC6F77
:10167000000E0001D3210001CD6FCCC0BBF0000EE5
:101680000001CF6F030ECE6FCEC0BCF034C0BDF0F2
:101690000001D2050001D311D8A403D036C0BEF09A
:1016A00005D036C0BEF037500001BF6FB80E036ED4
:1016B000000E046E060E0001D225056E000E00011C
:1016C000D321066EA40E076E000E086E000E0A6E81
:1016D000000E096E95EC07F0386E38500001D06F9F
:1016E000D16B0001D0510001D111D8B41BD0B80E7C
:1016F000036E000E046E060E0001D225056E000E6C
:101700000001D321066EA40E076E000E086E000EB7
:101710000A6E000E096E95EC07F0386E3850000125
:10172000D06FD16B0001D0510001D111D8B41BD0C2
:10173000B80E036E000E046E060E0001D225056E73
:10174000000E0001D321066EA40E076E000E086E77
:10175000000E0A6E000E096E95EC07F0386E3850D8
:101760000001D06FD16BD0C032F0D1C033F0120085
:10177000076E5B505C10D8A421D007C05EF05B4AB6
:101780005C2A000E066E000E056E06BE08D00650DE
:1017900005E1200E055CD8B0120001D01200600EE9
:1017A0000524D96E000E0620DA6E420EDF6E054A61
:1017B000062A06BEF4D706505AE1EBD75B045C104C
:1017C000D8A420D007C05DF05B4A5C2A0A0E5E18E0
:1017D000D8A40AD05DC001F0026AA8EC0DF0000E9A
:1017E0005C6E000E5B6E12000B0E5E18D8A4120029
:1017F0005DC001F0026AE5EC0DF0000E5C6E000EBB
:101800005B6E1200020E5B185C10D8A405D007C0F6
:10181000A2F05B4A5C2A1200030E5B185C10D8A48D
:1018200005D007C0A1F05B4A5C2A1200040E5B18C9
:101830005C10D8A405D007C0A0F05B4A5C2A120057
:10184000050E5B185C10D8A405D007C09FF05B4A5A
:101850005C2A1200060E5B185C10D8A405D007C0E5
:101860009EF05B4A5C2A12005B4A5C2A120012005E
:101870000001B8690001B96932C0BAF0000E000178
:10188000CD6F000ECC6F020E0001CC250001CE6F93
:10189000000E0001CD210001CF6FCEC0BBF0000EC5
:1018A0000001D16F010ED06FD0C0BCF0B80E036E36
:1018B000000E046E000E066E050E056EA40E076E79
:1018C000000E086E000E0A6E000E096E95EC07F011
:1018D000346E34500001D26FD36B0001D25100013D
:1018E000D311D8B417D0B80E036E000E046E000EDC
:1018F000066E050E056EA40E076E000E086E000E35
:101900000A6E000E096E95EC07F0346E345000013B
:10191000D26FD36B0001D2510001D311D8B417D0CC
:10192000B80E036E000E046E000E066E050E056EF8
:10193000A40E076E000E086E000E0A6E000E096EF1
:1019400095EC07F0346E34500001D26FD36BD2C0E7
:1019500032F0D3C033F01200000E0101056F010117
:1019600003AF08D00101026D031FD8B0032B010E95
:101970000101056F010101AF08D00101006D011FD8
:10198000D8B0012B010E0101051B000E0101076FEC
:10199000000E066F0101025101010311D8B42CD0D1
:1019A000010E0101046F06D00101D8900237033700
:1019B0000101042B010103AFF7D70101D8900637CD
:1019C0000737010102510101005D010103510101CD
:1019D0000159D8A00AD0010102510101005F0101A3
:1019E00003510101015B010106810101D89003331C
:1019F00002330101042FE1D7010105510101D8B4DF
:101A000005D00101066D071FD8B0072B06C100F1F4
:101A100007C101F11200C7A0C7B002D09E96120004
:101A20009EA641D0C7A416D0C7BA09D000019C51C8
:101A3000F1EC08F0C96E00019C4B9D2BC688C7AA2B
:101A400009D000019C51F1EC08F0C96E00019C4BDB
:101A50009D2BC688C7B427D0C7BA06D0010E000197
:101A6000D66FC9CFA3F0C688C7AA1DD00001D65132
:101A7000D8B40CD0C9CF9CF000019D6B00019C51E3
:101A8000B8EC0BF0000E0001D66F03D0C950B8ECD3
:101A90000BF0C6AE07D0C69EC9CFA3F00001A3517C
:101AA000B8EC0BF0C688A1A60AD01F0E036E0F0E6D
:101AB000046E25EC0FF0C9CFA3F0A196C6889E96C0
:101AC0001200010109BF08D0010109510FE10A0EFE
:101AD0000101085DD8B00AD0D00E01010A6FC90E0D
:101AE000E82EFED70A2FFCD700D0120008C100F163
:101AF00009C101F1000E0101036F0A0E026FACEC87
:101B00000CF000C10BF101C10CF1000E01010E6FD0
:101B1000000E0D6F0CD0D00E01010A6FC90EE82E19
:101B2000FED70A2FFCD700D001010D4B0E2B01016F
:101B30000B5101010D5D01010E51800A01010A6F77
:101B400001010C51800A01010A59D8B01200E3D7F3
:101B500014D08C8612008C8412008C8212008C802F
:101B600012008B8412008B8212008B8012008A80FC
:101B700012008A8412008A86120001C003F002C09B
:101B800004F00450000AD8A412000350010AD8B48B
:101B9000E0D7030AD8B4DFD7010AD8B4DED7070AE2
:101BA000D8B4DDD7010AD8B4DCD7030AD8B4DBD760
:101BB000010AD8B4DAD70F0AD8B4D9D7010AD8B4F1
:101BC000D8D7030AD8A41200D6D714D08C96120006
:101BD0008C9412008C9212008C9012008B94120044
:101BE0008B9212008B9012008A9012008A9412003D
:101BF0008A96120001C003F002C004F00450000AEB
:101C0000D8A412000350010AD8B4E0D7030AD8B40C
:101C1000DFD7010AD8B4DED7070AD8B4DDD7010A66
:101C2000D8B4DCD7030AD8B4DBD7010AD8B4DAD7E2
:101C30000F0AD8B4D9D7010AD8B4D8D7030AD8A480
:101C40001200D6D70AD0000E026E020E016E1200EC
:101C5000000E026E010E016E120001C003F002C000
:101C600004F00450000AD8A4F3D70350000AD8B4F3
:101C7000EAD7060AD8B4E7D70E0AD8B4E4D7060ADA
:101C8000D8B4E1D71A0AD8B4DED7020AD8B4DBD761
:101C9000080AD8B4D8D73E0AD8B4D5D7020AD8B4DF
:101CA000D2D7060AD8B4CFD7020AD8B4CCD70E0AF6
:101CB000D8B4C9D7180AD8B4C6D7CAD7520EF66E48
:101CC0001F0EF76E000EF86E0900F5CFD6F0090072
:101CD000F5CFD7F0540EF66E1F0EF76E000EF86EAD
:101CE0000900F5CF5EF000EE60F0440EEE6AE80603
:101CF000FDE15D6A5C6A5B6A5F905F920001CCEF18
:101D000009F0300ECD6E000EAA6EF80ECF6E300EBA
:101D1000CE6ECE50CFCF00F10101016B00C101F1B9
:101D20000101006B0101001100019A6F01010151D5
:101D300000019B6F9E90A3EC0FF01200000E8D6EC1
:101D4000000E8C6E000E896E000E8A6E000E8B6E79
:101D5000070E966EEF0E926EF20E936EB80E946EA4
:101D6000A00E956E0F015D697B0E0F015C6FFE0E7C
:101D70000F015B6F1200000E0001956F000E946F53
:101D80005E68000E5D6E000E0001A26F000E000185
:101D9000A16F000E0001A06F000E00019F6F000EEA
:101DA00000019E6F000E5C6E000E5B6E1200040E52
:101DB0000101046F010E0101056F04D001010651FC
:101DC00084EC0FF002C1F6FF03C1F7FF0101024BE3
:101DD000032BF86A0800F5CF06F101010651D8B4CB
:101DE0001200ECD7000E026E000E016E0ED0014AFA
:101DF000022A02BE0AD0F50E015C010E0258D8A0DC
:101E000004D0AB9EAB8EFC0E12009EAAF0D7ABA204
:101E100002D0AB9EAB8EAE501200056E05C003F033
:101E200003460346C2500318830B0318C26EC280D8
:101E3000C282C2B2FED7C450046E036AC3500324E8
:101E4000016E000E0420026E1200050E056E000EDB
:101E5000066E03D007509EEC0FF003C0F6FF04C0DF
:101E6000F7FF034A042AF86A0800F5CF07F0075085
:101E7000D8B41200EFD7A5EC0FF09EEC0EF07BEC7F
:101E80000FF04CEC0FF059EC0FF081EC0EF070EC11
:101E90000FF065EC0FF01200000EC76E3E0EC66E1E
:101EA000010EC56EFE0EC86E100EC86E9E969D8603
:101EB0001200010EC26E800EC16E160EC06E000EB4
:101EC000C46E000EC36E9D8C1200180EB96E900E7B
:101ED000A66EA60EBA6E8A0E7B6E000E7C6E120087
:101EE000080EA76E900EAB6EA40EAC6E0F0EAF6E0A
:101EF000000E7D6E1200600ED36E000ED26E000ECC
:101F00009B6E000E9A6E12000101016F01010151DA
:101F10008BEC0FF012000101006FA4A8FED700C1E6
:101F200079FF1200016EA4A8FED701C079FF12004C
:101F3000016E9EA8FED701C0ADFF1200026E0250D6
:101F400092EC0FF01200CD801200D09E12009E9CE9
:051F500012000155FF25
:020000040020DA
:08000000FFFFFFFFFFFFFFFF00
:020000040030CA
:0E00000015127F7CFF8991FF0FC00FE00F40AB
:00000001FF
