:040000004BEF00F0D2
:100008005F82FACF48F0FBCF49F0E9CF4AF0EACF58
:100018004BF0E1CF4CF0E2CF4DF0D9CF4EF0DACF34
:100028004FF0F3CF50F0F4CF51F0F6CF52F0F7CFB6
:1000380053F0F8CF54F0F5CF55F0F2BC9DAC03D097
:100048009EBCB4EC0EF0F2BC9DA603D09EB68DEC1F
:100058000BF055C0F5FF54C0F8FF53C0F7FF52C06E
:10006800F6FF51C0F4FF50C0F3FF4FC0DAFF4EC097
:10007800D9FF4DC0E2FF4CC0E1FF4BC0EAFF4AC0C8
:10008800E9FF49C0FBFF48C0FAFF5F9211006DEF1E
:020098000DF069
:100F000000496E697420636F6D706C657465640D63
:100F10000A00504D20526F626F7469780D0A0063A9
:100F20006F6C6C6964650D0A0000000E2C6E8C8875
:100F3000000E216E020E206E0AD020500324D96EBE
:100F400021500420DA6EDF502C26204A212A055039
:100F5000205C2150800A0B6E0650800A0B58D8A0E6
:100F6000ECD72C1E000E236E000E226E0BD02250EA
:100F70000324D96E23500420DA6EDF50A5EC0EF066
:100F8000224A232A0550225C2350800A0B6E065009
:100F9000800A0B58D8A0EBD72C50A5EC0EF0060E0B
:100FA00009242E6E000E0A202F6E000E256E000EF4
:100FB000246E0AD024500724D96E25500820DA6EFA
:100FC000070EDF6E244A252A2E50245C2550800A05
:100FD0000B6E2F50800A0B58D8A0ECD7350EE82E98
:100FE000FED700F08C98000E1F6E000E1E6EE6EC11
:100FF0000DF00B6E0B50266E276A10D0E6EC0DF04C
:101000000B6E0B50266E276A1E4A1F2A1FBE06D083
:101010001F5008E1060E1E5CD8B004D02628271009
:10102000D8A4ECD707C0D9FF08C0DAFF26C0DFFF7D
:10103000000E296E010E286E0BD028500724D96EA1
:1010400029500820DA6EE6EC0DF0DF6E284A292AD6
:101050002E50285C2950800A0B6E2F50800A0B58A6
:10106000D8A0EBD707C0D9FF08C0DAFFDF500B6E5E
:101070000B50106E116A20EE01F00750D92608506F
:10108000DA22DF500B6E0B50126E136A20EE02F064
:101090000750D9260850DA22DF500B6E0B50146E21
:1010A000156A20EE03F00750D9260850DA22DF50E7
:1010B0000B6E0B50166E176A20EE04F00750D926FF
:1010C0000850DA22DF500B6E0B50186E196A20EEB2
:1010D00005F00750D9260850DA22DF500B6E0B506E
:1010E0001A6E1B6A20EE06F00750D9260850DA2245
:1010F000DF500B6E0B501C6E1D6A000E2D6E000E25
:101100002B6E020E2A6E0AD02A500724D96E2B505D
:101110000820DA6EDF502D262A4A2B2AFF0E0B6E8E
:10112000FF0E0C6E2EC00DF02FC00EF00B500D26D2
:101130000C500E220D502A5C2B50800A0F6E0E5060
:10114000800A0F58D8A0E0D72D1EFF0E0B6EFF0EA1
:101150000C6E2EC00DF02FC00EF00B500D260C5053
:101160000E220D500724D96E0E500820DA6E2D5035
:10117000DE18D8B402D0FC0E12008C88350EE82E92
:10118000FED700F020EE04F00750D9260850DA22EE
:10119000DF501200140E5E18D8A413D05DC030F0DA
:1011A000316A33EC0DF030C039F031C03AF0000E46
:1011B0000001976F010E966F39C060F001EC0EF0E0
:1011C0008DD0150E5E18D8A41CD05DC030F0316AE9
:1011D0005CC032F0336A34EC0BF030C042F031C006
:1011E00043F0000E0001976F020E966F42C03DF073
:1011F00043503E6E3DC060F03EC061F001EC0EF029
:101200006DD0160E5E18D8A41FD05DC030F0316AC4
:101210005CC032F0336A5A50386E376A5B503724FC
:10122000346E000E3820356EE3EC0BF030C03BF02E
:1012300031C03CF0000E0001976F010E966F3BC06D
:1012400060F001EC0EF04AD00C0E5E18D8A446D027
:101250005D501AEC0EF0040E376ED8900232013257
:10126000372EFBD701C046F002C047F0462804E104
:101270000F0E4718D8B407D0FE0E461808E10F0E1F
:101280004718D8A404D0000E476E000E466E5D507D
:10129000020D800EF324D96E000EF420DA6E46C0E3
:1012A000DEFF47C0DDFF5D50020D800EF324D96ED6
:1012B000000EF420DA6EDECF44F0DDCF45F0000EF4
:1012C0000001976F020E966F44C03FF04550406E8C
:1012D0003FC060F040C061F001EC0EF0000196519B
:1012E00000019711D8A404D001EC0EF0000E1200FA
:1012F000600E00019425D96E000E00019521DA6E72
:10130000DF50416E0001944B952B00019451000178
:10131000965D00019751800A376E00019551800A51
:101320003758D8B004D001EC0EF06F0E12004150C7
:101330001200000E0101126F000E116F010112BFA9
:1013400008D00101125118E10A0E0101115DD8B057
:1013500013D0D89001011135D96E01011235DA6E22
:10136000800ED926000EDA22000EDE6E000EDD6E33
:101370000101114B122BE2D748EC0EF08C86F28E55
:101380008C84F28C120E0101026F0F0E0101036FAB
:10139000B0EC0DF0010E0101026F0F0E0101036FA1
:1013A000B0EC0DF0000E0101146F0A0E136F8C8269
:1013B0008C80000E0101106F000E0F6F010110BF35
:1013C00008D0010110515FE1020E01010F5DD8B09C
:1013D0005AD08C8613C108F114C109F136EC0CF017
:1013E0008C968C8413C108F114C109F136EC0CF011
:1013F0008C948C8213C108F114C109F136EC0CF005
:101400008C928C8013C108F114C109F136EC0CF0F8
:101410008C908B8413C108F114C109F136EC0CF0E7
:101420008B948B8213C108F114C109F136EC0CF0D6
:101430008B928B8013C108F114C109F136EC0CF0CA
:101440008B908A8013C108F114C109F136EC0CF0BD
:101450008A908A8413C108F114C109F136EC0CF0AA
:101460008A948A8613C108F114C109F136EC0CF094
:101470008A9613C108F114C109F136EC0CF0010190
:101480000F4B102B9BD78C988A86010E0101096F98
:10149000F40E086F36EC0CF08A96010E0101096F0C
:1014A000F40E086F36EC0CF0EFD7076E565057105D
:1014B000D8A421D007C05EF0564A572A000E066E07
:1014C000000E056E06BE08D0065005E1200E055C34
:1014D000D8B0120001D01200600E0524D96E000EA3
:1014E0000620DA6E420EDF6E054A062A06BEF4D7E3
:1014F00006505AE1EBD756045710D8A420D007C0A5
:101500005DF0564A572A0A0E5E18D8A40AD05DC06C
:1015100001F0026A7DEC0CF0000E576E000E566E64
:1015200012000B0E5E18D8A412005DC001F0026A12
:10153000BAEC0CF0000E576E000E566E1200020E42
:1015400056185710D8A405D007C05CF0564A572A41
:101550001200030E56185710D8A405D007C05BF030
:10156000564A572A1200040E56185710D8A405D010
:1015700007C05AF0564A572A1200050E561857103F
:10158000D8A405D007C09DF0564A572A1200060E6F
:1015900056185710D8A405D007C09CF0564A572AB1
:1015A0001200564A572A12001200000E0101056F60
:1015B000010103AF08D00101026D031FD8B0032B56
:1015C000010E0101056F010101AF08D00101006D9D
:1015D000011FD8B0012B010E0101051B000E0101F6
:1015E000076F000E066F0101025101010311D8B40B
:1015F0002CD0010E0101046F06D00101D8900237F2
:1016000003370101042B010103AFF7D70101D89083
:1016100006370737010102510101005D0101035145
:1016200001010159D8A00AD0010102510101005F56
:10163000010103510101015B010106810101D89003
:10164000033302330101042FE1D7010105510101E8
:10165000D8B405D00101066D071FD8B0072B06C10D
:1016600000F107C101F1120032C001F033C002F0F5
:10167000F7EC0CF001C0CFF002C0D0F00001B5696A
:101680000001B66930C0B7F0000E0001CA6F020E4B
:10169000C96F020E0001C9250001CB6F000E0001C9
:1016A000CA210001CC6FCBC0B8F0000E0001CE6F94
:1016B000020ECD6FCDC0B9F032C0BAF0CFC0BBF0D2
:1016C000B50E036E000E046E000E066E070E056E5C
:1016D0009F0E076E000E086E000E0A6E010E096E58
:1016E00095EC07F0346E34500001B36FB46B000119
:1016F000CF050001D011D8A404D0A4C030F0316AC5
:1017000012000001A551356E346A0001A451342441
:10171000306E000E3520316E1200C7A0C7B002D067
:101720009E9612009EA641D0C7A416D0C7BA09D073
:1017300000019A51CAEC08F0C96E00019A4B9B2B2C
:10174000C688C7AA09D000019A51CAEC08F0C96E30
:1017500000019A4B9B2BC688C7B427D0C7BA06D0C6
:10176000010E0001D16FC9CF9EF0C688C7AA1DD057
:101770000001D151D8B40CD0C9CF9AF000019B6BB5
:1017800000019A5155EC0AF0000E0001D16F03D010
:10179000C95055EC0AF0C6AE07D0C69EC9CF9EF020
:1017A00000019E5155EC0AF0C688A1A60AD01F0E72
:1017B000036E0F0E046E32EC0EF0C9CF9EF0A196B0
:1017C000C6889E96120032C001F033C002F0F7ECDA
:1017D0000CF001C0CDF002C0CEF00001B3690001F1
:1017E000B46930C0B5F0030E0001CD250001C76F0C
:1017F000000E0001CE210001C86FC7C0B6F0000E78
:101800000001CA6F030EC96FC9C0B7F032C0B8F08B
:101810000001CD050001CE11D8A403D034C0B9F029
:1018200005D034C0B9F035500001BA6FB30E036E65
:10183000000E046E060E0001CD25056E000E00019F
:10184000CE21066E9F0E076E000E086E000E0A6E09
:10185000000E096E95EC07F0366E36500001CB6F26
:10186000CC6BCBC030F0CCC031F01200010109BF0D
:1018700008D0010109510FE10A0E0101085DD8B03D
:101880000AD0D00E01010A6FC90EE82EFED70A2F2A
:10189000FCD700D0120008C100F109C101F1000E0F
:1018A0000101036F0A0E026FD5EC0AF000C10BF1C3
:1018B00001C10CF1000E01010E6F000E0D6F0CD076
:1018C000D00E01010A6FC90EE82EFED70A2FFCD7F1
:1018D00000D001010D4B0E2B01010B5101010D5DDB
:1018E00001010E51800A01010A6F01010C51800AA9
:1018F00001010A59D8B01200E3D714D08C86120027
:101900008C8412008C8212008C8012008B84120056
:101910008B8212008B8012008A8012008A8412004F
:101920008A86120001C003F002C004F00450000ACD
:10193000D8A412000350010AD8B4E0D7030AD8B4DF
:10194000DFD7010AD8B4DED7070AD8B4DDD7010A39
:10195000D8B4DCD7030AD8B4DBD7010AD8B4DAD7B5
:101960000F0AD8B4D9D7010AD8B4D8D7030AD8A453
:101970001200D6D714D08C9612008C9412008C9240
:1019800012008C9012008B9412008B9212008B909C
:1019900012008A9012008A9412008A96120001C0E6
:1019A00003F002C004F00450000AD8A4120003504F
:1019B000010AD8B4E0D7030AD8B4DFD7010AD8B4F3
:1019C000DED7070AD8B4DDD7010AD8B4DCD7030ABA
:1019D000D8B4DBD7010AD8B4DAD70F0AD8B4D9D72C
:1019E000010AD8B4D8D7030AD8A41200D6D70AD08F
:1019F000000E026E020E016E1200000E026E010E4B
:101A0000016E120001C003F002C004F00450000A8D
:101A1000D8A4F3D70350000AD8B4EAD7060AD8B43A
:101A2000E7D70E0AD8B4E4D7060AD8B4E1D71A0A21
:101A3000D8B4DED7020AD8B4DBD7080AD8B4D8D7CE
:101A40003E0AD8B4D5D7020AD8B4D2D7060AD8B439
:101A5000CFD7020AD8B4CCD70E0AD8B4C9D7180A3F
:101A6000D8B4C6D7CAD70001B3690001B46930C081
:101A7000B5F0000E0001C86F000EC76F020E000126
:101A8000C7250001C96F000E0001C8210001CA6FFF
:101A9000C9C0B6F0000E0001CC6F010ECB6FCBC0F9
:101AA000B7F0B30E036E000E046E000E066E050E48
:101AB000056E9F0E076E000E086E000E0A6E000E79
:101AC000096E95EC07F0326E32500001CD6FCE6B8F
:101AD000CDC030F0CEC031F012006C0EF66E1D0E8F
:101AE000F76E000EF86E0900F5CFD1F00900F5CFC2
:101AF000D2F06E0EF66E1D0EF76E000EF86E090037
:101B0000F5CF5EF000EE60F03F0EEE6AE806FDE114
:101B100000EE56F0080EEE6AE806FDE15F905F9277
:101B2000000199EF09F0000E8D6E000E8C6E000E14
:101B3000896E000E8A6E000E8B6E070E966EEF0E8B
:101B4000926EF20E936EB80E946EA00E956E0F010B
:101B50005D697B0E0F015C6FFE0E0F015B6F120063
:101B6000040E0101046F010E0101056F04D0010193
:101B7000065191EC0EF002C1F6FF03C1F7FF01011F
:101B8000024B032BF86A0800F5CF06F1010106515C
:101B9000D8B41200ECD7300ECD6E000EAA6EF80E3F
:101BA000CF6E300ECE6ECE50CFCF00F10101016B63
:101BB00000C101F10101006B01010011586E01012A
:101BC0000151596E9E90B0EC0EF01200000E026EA4
:101BD000000E016E0ED0014A022A02BE0AD0F50E96
:101BE000015C010E0258D8A004D0AB9EAB8EFC0E57
:101BF00012009EAAF0D7ABA202D0AB9EAB8EAE5025
:101C00001200000E0001956F000E946F5E68000ECA
:101C10005D6E000E5C6E000E5B6E000E5A6E000E66
:101C200000019D6F000E00019C6F000E576E000EAC
:101C3000566E1200056E05C003F003460346C250FF
:101C40000318830B0318C26EC280C282C2B2FED7D1
:101C5000C450046E036AC3500324016E000E0420B6
:101C6000026E1200050E056E000E066E03D00750C0
:101C7000ABEC0EF003C0F6FF04C0F7FF034A042AE2
:101C8000F86A0800F5CF07F00750D8B41200EFD774
:101C9000B2EC0EF093EC0DF088EC0EF059EC0EF077
:101CA00066EC0EF0CBEC0DF07DEC0EF072EC0EF06D
:101CB0001200000EC76E3E0EC66E010EC56EFE0E01
:101CC000C86E100EC86E9E969D861200010EC26EE2
:101CD000800EC16E160EC06E000EC46E000EC36E76
:101CE0009D8C1200180EB96E900EA66EA60EBA6EDE
:101CF0008A0E7B6E000E7C6E1200080EA76E900E90
:101D0000AB6EA40EAC6E0F0EAF6E000E7D6E1200A9
:101D1000600ED36E000ED26E000E9B6E000E9A6E99
:101D200012000101016F0101015198EC0EF0120047
:101D30000101006FA4A8FED700C179FF1200016E57
:101D4000A4A8FED701C079FF1200016E9EA8FED79D
:101D500001C0ADFF1200026E02509FEC0EF01200A7
:0F1D6000CD801200D09E12009E9C12000155FFF4
:020000040020DA
:08000000FFFFFFFFFFFFFFFF00
:020000040030CA
:0E00000015127F7CFF8991FF0FC00FE00F40AB
:00000001FF
